:020000040800F2
:100000003027002079020008C5100008C509000843
:10001000C1100008C10900086D1C000800000000A4
:100020000000000000000000000000003511000882
:10003000C309000800000000C71000089102000872
:10004000930200089302000893020008930200083C
:10005000930200089302000893020008930200082C
:10006000930200089302000893020008930200081C
:10007000930200089302000893020008930200080C
:100080009302000800000000930200089302000899
:1000900093020008930200089302000893020008EC
:1000A00093020008930200089302000893020008DC
:1000B00093020008930200089302000893020008CC
:1000C00093020008930200089302000893020008BC
:1000D00093020008930200089302000893020008AC
:1000E000930200089302000893020008930200089C
:1000F0009302000893020008930200080000000029
:1001000000000000930200080000000093020008B5
:100110009302000800000000930200083512000856
:10012000930200089302000893020008930200085B
:100130009302000800000000000000009302000885
:100140009302000893020008000000000000000075
:10015000000000000000000000000000000000009F
:1001600000000000000000000000000093020008F2
:1001700093020008000000000000000000000000E2
:1001800000000000930200080000000000000000D2
:10019000000000000000000000000000000000005F
:1001A0000000000000000000930200089302000815
:1001B0009302000893020008930200080000000068
:1001C0000000000093020008000000000000000092
:1001D000930200089302000800F002F800F03CF8D7
:1001E0000AA090E8000C82448344AAF10107DA4592
:1001F00001D100F031F8AFF2090EBAE80F0013F0A8
:10020000010F18BFFB1A43F001031847CC2300006D
:10021000EC230000103A24BF78C878C1FAD85207FE
:1002200024BF30C830C144BF04680C607047000070
:100230000023002400250026103A28BF78C1FBD8EF
:10024000520728BF30C148BF0B6070471FB502F08E
:1002500022F91FBD10B510BD00F047F91146FFF798
:10026000F5FF01F005FD00F065F903B4FFF7F2FFBB
:1002700003BC00F06DF900000948804709480047B9
:10028000FEE7FEE7FEE7FEE7FEE7FEE7FEE7FEE746
:10029000FEE7FEE704480549054A064B70470000A3
:1002A00023120008D9010008302100203027002047
:1002B000302300203023002053EA020C00F0698034
:1002C0002DE9F04B4FF00006002B1FBFB3FA83F56A
:1002D00003FA05F424FA05F65E4012BF1643B2FA9B
:1002E00082F502FA05F4C5F120051EBF22FA05FCCD
:1002F00044EA0C04203556EA044C4FEA144418BF73
:10030000641C4FF000084FF00009904271EB030CA1
:1003100039D3002919BFB1FA81F701FA07F6B0FA0B
:1003200080F700FA07F6C7F120071EBF20FA07FC86
:1003300046EA0C062037B6FBF4FCA7EB0507103F96
:1003400007F01F0BCBF120062CFA06F60CFA0BFB7C
:1003500044BFB3460026202FA4BF5E464FF0000BDB
:100360005BEA060C08BF4FF0010B19EB0B0948EBD9
:100370000608ABFB027C06FB02CC0BFB03CCC01BCC
:1003800071EB0C01C1E70B46024641464846BDE809
:10039000F08B13B5084318BF4FF0FF300146AFF3A1
:1003A0000080BDE81C407047032A40F2308010F006
:1003B000030C00F0158011F8013BBCF1020F624400
:1003C00098BF11F801CB00F8013B38BF11F8013B91
:1003D000A2F1040298BF00F801CB38BF00F8013B3E
:1003E00011F0030300F04F80083AC0F0088051F884
:1003F000043B083A51F804CBA0E80810F5E7121DB9
:100400005CBF51F8043B40F8043BAFF30080D207D7
:1004100024BF11F8013B11F801CB48BF11F8012BA3
:1004200024BF00F8013B00F801CB48BF00F8012BC6
:1004300070474FF0000200B51346944696462039A7
:1004400022BFA0E80C50A0E80C50B1F12001BFF48D
:10045000F7AF090728BFA0E80C5048BF0CC05DF8F3
:1004600004EB890028BF40F8042B08BF704748BF41
:1004700020F8022B11F0804F18BF00F8012B7047B5
:1004800070477047704710B5203AC0F00B80B1E854
:100490001850A0E81850B1E81850A0E81850203AB9
:1004A000BFF4F5AF5FEA027C24BFB1E81850A0E8C2
:1004B000185044BF18C918C0BDE810405FEA827CDC
:1004C00024BF51F8043B40F8043B08BF7047D207F3
:1004D00028BF31F8023B48BF11F8012B28BF20F894
:1004E000023B48BF00F8012B7047754600F02CF81E
:1004F000AE4605006946534620F00700854618B011
:1005000020B5FFF7C7FEBDE820404FF000064FF0D2
:1005100000074FF000084FF0000BAC46ACE8C009F4
:10052000ACE8C009ACE8C009ACE8C00921F007019B
:100530008D46704710B50446AFF300802046BDE8F5
:100540001040FFF792BE00000048704710000020E6
:1005500001491820ABBEFEE726000200704740F2BA
:100560007C00C2F2000090F82000704780B540F295
:100570007C0EC2F2000E9EF8173084464FF0010048
:1005800003B180BD8EF818008EF8170000208EF899
:1005900008C08EF80910CEF8102080BD40F27C0C07
:1005A000C2F2000C9CF81730002B4FF001030BD166
:1005B0008CF8183002238CF8173000238CF80800D0
:1005C0008CF80910CCF810201846704740F27C00D7
:1005D000C2F20000002101767047000010B540F221
:1005E000180CC4F6000C802244F20041CCF8002420
:1005F0004FF40062C4F20001CCF800200A684FF00A
:10060000020E22F001020A60DCF8E8234FF090406D
:100610006EF38712CCF8E823036858246EF39343F3
:10062000C4F20204036001F12400A06041F694606A
:10063000C2F20000E0606068042363F30F0044F23C
:100640000843C4F20003606053E8000F40F040002C
:1006500043E80002002AF7D10868102262F35950DB
:100660000860086862F314400860086840F0010000
:100670000860206840F0010020604FF48060CCF8F2
:1006800010000120CCF8000440F20040C4F2000049
:10069000016841F00101016010BD000040F27C02E0
:1006A000C2F20002D17D072900F2A380DFE811F039
:1006B00027010800310058006E00A300B9009C001B
:1006C000107A0C2300F07F0142F2C85C83EA111318
:1006D000C0F6000C1CF8033000F00F0058401CF866
:1006E00000003C23A3EB800000F47F7040EA8110FF
:1006F00040F4803040F002001060022010750020AD
:10070000506050810320D0754FF48030D0610121BA
:10071000F5E0107A0C2300F07F0142F2C85C83EA16
:100720001113C0F6000C1CF8033000F00F00584005
:100730001CF800003C23A3EB800000F47F7040EA2B
:10074000811000F1011010600121002003231175B8
:1007500050815060D375A2F815004FF4803013E03B
:10076000D17A0131D172C9B2C1F1120C536800FAC9
:100770000CF01843112950605DD81068D169014010
:10078000D06918BF01214008D061B8E0D17A536820
:10079000C1F10D0C00FA0CF018430D2950605AD32A
:1007A000506842F2C853C0F30321C0F60003595CFD
:1007B000C0F303104840185C5168C0F10F0001F00D
:1007C0000F0188424AD150681169937A0009C854D0
:1007D000507A917A0131CBB28342917280F07C8061
:1007E00000205060D07292E7107B10B10138107376
:1007F00084E000211DE0917D032900F27A80DFE88A
:1008000001F002313B51517D0123022993756CD0D7
:1008100001296CD000296CD101210028517570D1BB
:1008200067E0507B002101305073507B0E2866D169
:100830005173D17563E05168107D430803F580332F
:1008400099420DD100210523D172022808BF04234B
:10085000D37551605BE7481CD0724FE0032049E03C
:10086000012047E0022100239175D1725360C8B383
:100870001068C0F3C02142E0D17A5368C1F10D0C79
:1008800000FA0CF018435060481CD0721168C0B2D6
:10089000C0F10D03D9400D2801F0010104BF032070
:1008A00090752CE00021D37A9175C3F10D01536846
:1008B00088401843506050681168B0EB510F18D150
:1008C000507A917A0131CBB283429172FFF41FAF1B
:1008D00002205075107611E0032010760720D075A5
:1008E0000E2084E782F8201006E010B9F6E7012810
:1008F00007D1022082F820000620D075002108468A
:1009000070471069917A42F2C85C405CC0F6000CF6
:1009100001091CF8011000F00F0359401CF80110E8
:100920001E23A3EB410101F4FF7141EA4010106066
:100930001068C0F30031E2E75820C4F202000168F9
:10094000042221F001010160416862F30F0141605E
:10095000016841F00101016040F20100C2F20000B3
:10096000007820B1012818BF7047222000E08120C4
:1009700044F22841C4F20001086070475820C4F2D4
:1009800002000168042221F001010160416862F364
:100990000F014160016841F00101016040F2010076
:1009A000C2F20000007820B1012818BF7047122061
:1009B00000E0B12044F22841C4F200010860704711
:1009C000FEE77047FEE7000041F20041C4F200017B
:1009D000C86840F00100C8600A68082042F00102BF
:1009E0000A6041F63471C4F20200C2F20001C16033
:1009F00048F22401C4F2000142F234028160C2F2E2
:100A0000000204310262C16141684FF4807262F3F6
:100A10000F01416048F20801C4F2000151E8002FC3
:100A200042F0400241E80023002BF7D151E8002FAB
:100A300042F0800241E80023002BF7D1016841F029
:100A400001010160704740F27C00C2F20000007EAC
:100A5000704780B50822C5F200021368D2F8002161
:100A60001A43D2071CBF012080BDD1E900C38268B0
:100A700043F2E00ECFF6C07E02EA0E0243B1D1E9A6
:100A800002E141EA0E01114341EA0C01194301E080
:100A900042EA0C018160002080BD8268D2071CBF41
:100AA00001207047C2684CF2180322EA030CD1E916
:100AB0000032896843EA0C031A431143C1600020E5
:100AC0007047B0B58268D2071CBF0120B0BDD1E924
:100AD00000C2C3684CF21C0ECFF6F07E0EEA030E85
:100AE00032B101F1080538CD496923432B4303E0B6
:100AF000D1E9033449692343194341EA0C0141EA2E
:100B00000E01C160016B21F00F0111430163002050
:100B1000B0BD00002DE9F04F0C6894FAA4F2B2FACF
:100B200082F234FA02F361D04FF001084FF0030B68
:100B300008FA02F314EA030C54D0D1F80490A9F196
:100B40000103022B1CD29CFAACF6B6FA86F77E00A3
:100B5000D0F808A00BFA06F3D1E902BE2AEA030A8C
:100B60000BFA06F545EA0A05856045684FF0030B68
:100B7000A5430EFB04F4DB432543456008E000BFBA
:100B80009CFAACF3B3FA83F77E000BFA06F3DB436F
:100B90000D69C468B5401C402543B9F1020FC5601A
:100BA00019D14FEA1C2494FAA4F4D1F814E0BCF54E
:100BB000807F28BFB4FA84F74FF0240438BF202484
:100BC00050F804C0BF000F25BD402CEA05050EFA01
:100BD00007F72F430751D1E900470568B7402B407D
:100BE0003B430360013234FA02F3A1D10020BDE897
:100BF000F08F44F6D351C1F26201A0FB01014FF026
:100C0000FF3000EB91104EF21001CEF2000148606F
:100C100000208860052008607047000070B5044619
:100C20000068C00733D10D4620684EF6F311CEF6AA
:100C3000FF7105F1080608404ECE084318433043C3
:100C40002060606820F4405010436060A869A1688B
:100C500021F440710843A0604FF4406000F02EF88A
:100C6000B8B16A68AAB129880EA333F8111000231D
:100C7000B0FBF1F00026010E000210EB520041F132
:100C80000001FFF719FB6FF31F50E06002E001263F
:100C900006E001262888E16A21F00F010843E0629E
:100CA000304670BD010002000400060008000A0082
:100CB0000C001000200040008000000110B541F23F
:100CC0000004C4F20204D4F8881008404FEAB020AF
:100CD000032807D002280CD0012813D1BDE810400A
:100CE00000F0F2B9D4F890004FF4004101EA8030EE
:100CF00010BD206842F200414005C0F2F40101EA53
:100D0000E07010BD00F0E0F9A16842F2B042C1F31A
:100D10000311C0F60002515CA26842F2C043C2F364
:100D20000222C0F600039A5C01F01F01C84002F0E5
:100D30001F01C84010BD10B5C0281CBF002010BD49
:100D400041F20004C4F20204D4F88800C0F3811018
:100D5000032807D002280CD0012813D1BDE8104089
:100D600000F0B2B9D4F890004FF4004101EA8030AD
:100D700010BD206842F200414005C0F2F40101EAD2
:100D8000E07010BD00F0A0F9A16842F2B042C1F3DA
:100D90000311C0F60002515CA26842F2C043C2F3E4
:100DA0000222C0F600039A5C01F01F01C84002F065
:100DB0001F01C84010BD10B530282CD00C2833D0EE
:100DC00003281CBF002010BD41F20004C4F202043D
:100DD000D4F888004FF4404161F39F00B0F1031F45
:100DE00034D00221C0F20301884236D00121C0F282
:100DF0000301884226D000F067F9A16842F2B042B0
:100E0000C1F30311C0F60002515CA26801F01F019A
:100E1000C2F3C22239E041F20004C4F20204D4F861
:100E20008800C0F3011007E041F20004C4F202049C
:100E3000D4F88800C0F38100032807D002280CD022
:100E4000012813D1BDE8104000F03EB9D4F890005D
:100E50004FF4004101EA803010BD206842F20041A9
:100E60004005C0F2F40101EAE07010BD00F02CF979
:100E7000A16842F2B042C1F30311C0F60002515C16
:100E8000A26801F01F01C2F3022242F2C043C0F681
:100E900000039A5CC84002F01F01C84010BD40F238
:100EA0000401C2F200010860704740F2FF7C024674
:100EB0000068C4F2000C624510DD40F60003C4F285
:100EC00000039A4213D043F20043C4F201039A4252
:100ED0000DD042F60043C4F2010306E0B2F1804FA8
:100EE00005D040F20043C4F200039A4203D14B689C
:100EF00020F07000184343F2FF33C4F201039A421A
:100F000009DC624516DCB2F1804F28D040F2004384
:100F1000C4F2000321E044F2FF33C4F201039A4219
:100F200011DC43F20043C4F201039A4217D044F2A9
:100F3000000310E040F60003C4F200039A420ED012
:100F400042F6004307E044F60003C4F201039A426C
:100F500005D044F20043C4F201039A4203D1CB68A6
:100F600020F44070184310608868D062A2F180407D
:100F7000A0F596300B884FEAB0200728936207D877
:100F8000012303FA00F010F0E50F1CBF086910639D
:100F9000506940F0010100205161704770B504466E
:100FA0000068C0071CBF012070BD0E46206846F6D1
:100FB000F311CEF6FF710840D6E9021CD6E90432DF
:100FC0000843F5691843104328432060606820F403
:100FD000405040EA0C006060B069A16821F44071A3
:100FE0000843A06044F6FF30C4F2000084424FF092
:100FF00001000DDC44F20041C4F200018C4215D026
:1010000044F60001C4F200018C423AD130200EE0D7
:1010100044F60041C4F200018C420BD043F60001BB
:10102000C4F201018C422CD1032000E00C20FFF718
:10103000C2FE02E0C020FFF77EFEC8B17168B9B100
:1010400032680B2A1CD812A353F82220F369B0FB94
:10105000F2F0B3F5004F0DD1400000EB5100B0FBB2
:10106000F1F04FF6F0710140C0F34200084406E091
:10107000012006E000EB5100B0FBF1F080B2E0602F
:1010800000203188E26A22F00F021143E16270BD54
:101090000100000002000000040000000600000043
:1010A000080000000A0000000C0000001000000012
:1010B000200000004000000080000000000100004F
:1010C000FEE70000FEE7704741F20C01C4F20201A6
:1010D00051F8040C00F00C0242F200400C2AC0F25D
:1010E000F40007D0082A18BF704741F20020C0F270
:1010F0007A0070470A68034602F00302032A04BF1D
:1011000041F20023C0F27A03022A0A6808BF0346AC
:10111000C2F306200A680968C2F303125843013279
:10112000B0FBF2F0C1F34161022202EB4101B0FBDE
:10113000F1F07047704710B50446FFF784FC00B12A
:1011400010BD40F2A000C2F20000047010BD00000B
:1011500010B582B042F20000C4F20200016804221D
:1011600062F30301016000BF016801F00F0104296F
:10117000FAD147F20001C4F200010A68012341F2EA
:10118000000063F34A22C4F202000A60016841F4DD
:101190008031016001688903FCD5C16848F20C0206
:1011A000CFF6FF12114042F203421143C160C16801
:1011B00041F08071C160016841F08071016000BF41
:1011C00001688901FCD58168082241F00301816032
:1011D000816862F307118160816801F00C010C29BC
:1011E000FAD155210191019911B101990139F9E71C
:1011F000816844F2004421F0F00181608168C0F60A
:10120000950421F4E0618160816821F4605181607E
:101210002046FFF7EEFC204602B0BDE81040FFF785
:101220003EBE4EF68850CEF20000016841F47001D7
:1012300001607047B0B541F21040C4F200006FF099
:10124000010101605C20C4F20200006800041CD0AF
:1012500041F69860C2F20000017801310170007817
:10126000FF2808D140F20100C2F200000178B1FA73
:1012700081F14909017040F20900C2F200000078D2
:10128000012838D1FFF758FB5DE041F69464C2F2C3
:101290000004206842F2C842C0F30161C0F60002B7
:1012A000515CC0F307435940515CC0F307235940D8
:1012B000515CC3B25940515C820E81F0FF01B2EB28
:1012C000910F1BD140F20001C2F2000100220A700E
:1012D00040F27001C2F200010A68C0F3D21002F0BD
:1012E0007F421044086008680A6862F3170000F142
:1012F0008070086008E0FFF741FB24E040F2000046
:10130000C2F200000121017040F20805C2F200059E
:101310002878FFF7C3F9012803D1FFF70DFB01205F
:1013200002E0FFF72BFB002040F20901C2F20001AE
:10133000087020780021C0F30010287041F69860F2
:10134000C2F20000017040F22440C4F2000040F2FA
:1013500078010068C2F200010A880880BDE8B04048
:10136000AFF300802DE9F04F83B0FFF76CFB03284B
:1013700007D141F69250C2F2000000F047FCFFF79F
:1013800025F941F69157C2F200073878082800F293
:101390008882DFE810F009002200860257005E0014
:1013A000A2001D019701F6010C20C4F202000068A2
:1013B00081B241F69C60C2F200000068C1F5807104
:1013C000814240F0F58141F62570C2F200000078BC
:1013D000002800F06882042064E241F6A069C2F2AD
:1013E000000948468521FFF724F841F63070C2F223
:1013F0000000007800285DD041F69C6B41F62C7A05
:10140000C2F2000BC2F2000ADBF80040DAF800007A
:1014100041F6347520440138C0B2C2F20005285CA0
:10142000DAF8001001390A0600F04082CAB2002141
:10143000234600BFDEB2AE5D013A314403F1010341
:10144000F8D134E241F69050C2F20000012101705F
:1014500030E041F62578C2F2000898F80000002834
:1014600000F0218241F62679C2F2000999F80010B5
:1014700040F2A206C2F20006862311FB036201FBC2
:1014800003F5137916F805B054880D2B00F2A881E6
:1014900002F1050ADFE813F010000E000E000E0046
:1014A00083020E000E000E000E000E00CE02D602C9
:1014B000DD02F2020820F5E1FFF7C5FA012800F08D
:1014C000F281BBF1400F40F0DE8204F01F000630D5
:1014D0004FF0410B8AF84100D5E241F27C31C2F273
:1014E0000001B1F80004002800F0DB8140F2700038
:1014F000C2F20000026840F2740002920192C2F24D
:1015000000000068120E0290029091F8023493429B
:1015100000F0C98181F8022491F80424019B41F86C
:10152000223091F80424013281F80424020E41F2A1
:101530008470C2F2000080F8022490F80424029B18
:1015400040F8223090F80424013280F8042491F805
:10155000042491F80334D21AD2B21E2AC0F0A38117
:1015600091F8032491F804349A4226D041F692521D
:10157000C2F2000200270432042300BF91F8036482
:10158000FDB251F826600437565190F80364FDB25D
:1015900050F8266053FA87F7565191F803640136E4
:1015A00081F8036490F80364013680F8036491F8CD
:1015B000036491F80454AE42E0D1B1F80024013A3A
:1015C000A1F80024B0F80024013AA0F80024CAE0F1
:1015D00041F27C31C2F20001B1F80004002800F0B1
:1015E000608140F27000C2F20000006840F27802B0
:1015F00002900290C2F200021288000EADF80420A0
:10160000ADF8042091F80224824200F04C8181F868
:10161000020491F80404029A41F8202091F804048D
:10162000013081F8040441F68C30C2F2000090F8D9
:101630000322BDF8043020F8123090F80322013262
:1016400080F8032291F8042491F80334D21AD2B21C
:10165000282AC0F0288191F8032491F804349A4292
:1016600025D041F69252C2F2000200270432022332
:1016700091F80364FDB251F826600437565190F892
:101680000262FDB230F8166053FA87F7565391F8AC
:101690000364013681F8036490F80262013680F831
:1016A000026291F8036491F80454AE42E0D1B1F8BB
:1016B0000024013AA1F80024B0F80022013AA0F871
:1016C000002250E041F27C31C2F20001B1F8000486
:1016D000002800F0E68040F27000C2F200000068CE
:1016E0000290029091F80224000E824200F0DB800A
:1016F00081F8020491F80404029A41F8202091F83C
:101700000404013081F8040491F8040491F80324DE
:10171000801AC0B23C28C0F0C68091F8030491F84A
:10172000042490421AD041F692520020C2F20002E4
:10173000042300BF91F8037452FA80F651F8277021
:1017400053FA80F0776091F80374013781F80374DD
:1017500091F8037491F80464B742EBD1B1F8000436
:101760000138A1F80004B1F80004020A41F69250D1
:10177000C2F200004270B1F80014817000F046FA25
:1017800091E041F69055C2F200052878032869D00F
:10179000022800F07480012840F0808041F69250C9
:1017A0000121C2F20000CEF60071016001216FE05C
:1017B00041F63472C2F20002125C41F63073C2F29A
:1017C00000031A701A78081A511D41F62C72C2F2E1
:1017D000000211601168C0B2884264D3012061E048
:1017E000A3F17902092A3FF665AEDFE812F00B009B
:1017F0000A000A000A000A000A000A006E01A0019D
:10180000C60157E641F69252C2F200027923D37024
:10181000F023137041F27C33621CC2F200030026F5
:10182000A3F8002483F8046483F8036483F8026453
:1018300041F68C33C2F20003A3F8002201314EF2CC
:101840008F324A43520D02EBC202A1EB82010138F2
:1018500083F8036283F8026289F8001088F80000B8
:1018600006201FE041F692540120C2F20004CDF69A
:1018700000702060FEF773FE2071204609E041F6FB
:1018800092500121C2F20000CEF6007101600221E7
:10189000017100F0BBF90020287002E000BF00BF1A
:1018A00000BF0020387003B0BDE8F08F002149422E
:1018B000C9B288420DD1DAF800002044B0F5807F2B
:1018C0000FD8DAF8002041F6A0602919C2F2000012
:1018D00014E041F69050C2F2000001210170032093
:1018E00055E0C4F58076291948463246FEF75CFD7E
:1018F000DAF8001009EB06008A1B2946FEF754FDB2
:1019000041F62578C2F2000898F80060232E37D8F7
:1019100041F62773B9F80100C2F2000393F800B052
:1019200040F2A20C99F8031000BAC2F2000C86250E
:1019300099F80020000C1BFB05C30BFB05F5197182
:101940005880581D09F104010CF80520FEF72CFD04
:101950000BF101004EF28F314143490D01EBC10102
:10196000A0EB810041F62771C2F2000141F69C6BA9
:101970000870701CC2F2000B88F80000042006E01A
:1019800041F69050C2F20000022101700820387028
:10199000DAF800002044C0B2CBF8000083E7FFF77C
:1019A00052F801283FF47FAF9AF8000002AA8DF8A0
:1019B000080018200121FEF7F1FD002840F0F48016
:1019C00099F800004EF28F3101304143490D01EB8F
:1019D000C101A0EB810198F800000022431EDDB296
:1019E00088F8003041F62873C2F20003232D3A70C4
:1019F00089F800101A7000F202812331CAB239232B
:101A00005A43D20A42EAC202A1EB820189F80010CD
:101A1000C9B2862201FB02F311FB02610D220A7199
:101A200040224A800122F2540522127888F80000F0
:101A30004A7138E79AF80000012800F2CB80FFF7DE
:101A40007AFBC7E040F21842C4F60002012313619A
:101A500005E040F21842C4F60002012313600022A0
:101A60003A7001314EF28F324A43520D02EBC202FC
:101A7000A1EB8201013889F80010BDE0FEF7E3FF19
:101A800001283FF410AF204659465246FEF786FD26
:101A9000002840F0898099F800104EF28F32013111
:101AA0004A43520D02EBC202A1EB820198F80020DA
:101AB00089F80010511E88F8001041F628710020A6
:101AC000C2F2000138700870EDE641F69252C2F29F
:101AD00000028023D370F023137041F27C33621C28
:101AE000C2F200030026A3F8002483F8046483F8FC
:101AF000036483F8026441F28473C2F20003A3F822
:101B0000002401314EF28F324A43520D02EBC202E1
:101B1000A1EB8201013883F8046483F8036483F83D
:101B2000026489F8001088F800000520BAE641F642
:101B30009252C2F200028123D370F023137041F25B
:101B40007C33621CC2F20003A3F80024002283F855
:101B5000042483F8032483F8022401314EF28F32E7
:101B60004A43520D02EBC202A1EB8201013889F80F
:101B7000001088F80000072094E6FEF764FF0128B3
:101B80003FF491AE41F69252C2F200028220D07030
:101B900002F804BB200A02F8030C2046594602F85A
:101BA000024CFEF7E3FCA8B141F62870C2F2000037
:101BB00001780131CAB2032A0170FFF474AE41F614
:101BC0009051C2F2000103220A70082139700021ED
:101BD000017068E699F8001000203870481C4EF239
:101BE0008F314143490D01EBC101A0EB810098F811
:101BF000001089F80000481E88F8000053E641F6FE
:101C00009050C2F200000221FFF721BC70B51C26E3
:101C1000C4F20206014600783268FC2822F0010274
:101C200028BFFC20326072684FF6FF739A4302446B
:101C300042F234050532041DC2F2000572602846E6
:101C40002246FEF7B1FBE87829461030E870002004
:101C5000224600BF11F8013B013A1844FAD1404234
:101C60002855306840F00100306070BDFEE700008C
:101C700096B041F24C04C4F2020460694EF60C5274
:101C800040F0010060616069CEF2000200F00100E6
:101C90000E900E98E0684FF6FF0140F08050E06033
:101CA000E068134600F080500E900E9810680027F0
:101CB000084040F20031C0F2FA5108431060106849
:101CC0000422C0F3022080F00701042928BF114636
:101CD0004FF0FF32033802FA01F138BF3846C943EA
:101CE00001FA00F00001D87547F20800C4F20000C4
:101CF000016840F2004840F2080948F2000541F44A
:101D00008041C4F60008C4F20209C4F20005016073
:101D1000FFF71EFA139720684FF0010B40F02000E8
:101D2000206020684FF4806A00F020000890089836
:101D300020684FF4006140F00100206020680EAE82
:101D400000F0010008900898206840F00200206030
:101D5000206800F00200089008984FF62840CFF65F
:101D6000FF70C8F828B048F800A048F800104FF4F9
:101D7000805148F800104020C8F828008020C8F89A
:101D8000280040463146CDE90EBBCDE910771297C9
:101D9000FEF7C0FE4FF090403146CDE90EABCDE9E5
:101DA00010771297FEF7B6FE4FF40060CDE90E0BE8
:101DB0004FF090403146CDE910771297FEF7AAFE1A
:101DC0004FF480500E904FF0904031464FF4805ABF
:101DD000CDE90FB7CDE91177FEF79CFE10200E90EC
:101DE0000220CDE90F070620139040463146CDE989
:101DF0001177FEF78FFE4020CDE90E0B40463146AD
:101E0000CDE910771297FEF785FE8020CDE90E0B05
:101E10004EF20B4B40464EF60C583146CEF2000BBC
:101E2000CDE910771297CEF20008FEF773FE54F852
:101E3000040C4EF2001140F0040044F8040C54F875
:101E4000040CCEF2000100F004000E900E9854F83D
:101E5000040C08AE40F0010044F8040C54F8040CE3
:101E600000F001000E900E9854F8040C40F00200AF
:101E700044F8040C54F8040C00F002000E900E9884
:101E8000D8F800008BF800704FF400600860D8F8B4
:101E900000008BF80170C1F800A0D8F800008BF8A2
:101EA00002704FF400500860D8F800008BF80370FF
:101EB0004FF480400860D8F800008BF804704FF4AD
:101EC00000400860D8F800008BF82D704FF080704B
:101ED0004860D8F800008BF82E704FF00070486012
:101EE00054F8040C4FF0020B40F0080044F8040CC6
:101EF00054F8040C4FF00C0A00F008000E900E98F5
:101F0000E06B314620F44060E063206940F001005E
:101F10002061206900F001000E900E98206840F0CA
:101F200001002060206800F001000E900E9804204F
:101F300008904FF09040CDE909B7CDE90B77CDF887
:101F400034A0FEF7E7FD0820CDE9080B4FF09040E4
:101F50003146CDE90A77CDE90C7AFEF7DBFDD9F8F9
:101F6000F807222161F30700C9F8F807D9F8000043
:101F70004BF6EF71CFF6FF710840C9F80000D9F8B1
:101F8000000040F6040320F44050C9F80000D9F8DE
:101F90000000C4F2020340F02000C9F80000D9F8A4
:101FA0000000232220F04000C9F80000D9F800000A
:101FB00040F08000C9F80000D9F8000020F440701B
:101FC000C9F80000D9F8000020F44060C9F800000A
:101FD000186862F307001860D9F814000840103040
:101FE000C9F81400D9F814000EA920F44050C9F81B
:101FF0001400D9F8140020F02000C9F81400D9F812
:10200000140020F04000C9F81400D9F8140040F082
:102010008000C9F81400D9F8140020F44070C9F801
:102020001400D9F8140020F44060C9F8140041F6F7
:102030000030C0F2B700CDE90F0728460E97CDE972
:102040001177CDE913A7FEF7E9FD48F20800C4F2C5
:10205000000000BF50E8001F21F0604140E800127E
:10206000002AF7D150E8001F21F0606140E800121B
:10207000002AF7D1286820F000502860286840F036
:1020800001002860E8698002FCD5E8694002F9D5C2
:102090000EAE44F2004530461421C4F20005FEF7AE
:1020A000C8F9E0684EF2001140F02000E060E068FE
:1020B000CEF2000100F0200008900898D8F8000047
:1020C0004EF20B404FF00008CEF2000080F82C805A
:1020D0004FF4000041F20047486041F2BF20C4F2D3
:1020E0000007109038463146ADF83880CDF83C8076
:1020F000FEF7DBFE38684FF68F7120F08000386005
:102100007868CFF6FF5108407860B8684FF0020A4F
:1021100020F08000B860CDE90388CDE90C88CDE9D6
:102120000A88E06B08A96AF31D70E0632068012744
:1021300040F400502060206800F400500E900E988B
:10214000206840F001002060206800F001000E903F
:102150000E9801200890032009904FF09040CDF890
:102160003080FEF7D7FC05A94FF0A040CDE90588E7
:10217000CDF81C80FEF791FC0EAE30461821FEF71C
:1021800058F94FF0A0403146FEF79BFC0826C5F2F7
:102190000006D6F8B80043F6FF718843C6F8B800C9
:1021A000B06840F2034120F48030B060B0688843EA
:1021B000B0604FF44030CDE9010806F53E7001A94A
:1021C000FEF747FC30684FF6C071C5F6FF71084056
:1021D0003060306801F18051084000F1805030607B
:1021E000B06A0DF1200B67F38A10B062F068142119
:1021F00020F03800F060D6F8A80020F00200C6F801
:10220000A80040F20046C4F20006F06D20F00F3046
:102210000130F0655846FEF70CF9E0680EAF40F06B
:102220000200E060E068394600F002000E900E986F
:10223000206840F001002060206800F001000E904E
:102240000E981020CDE90E0A4FF09040CDE910888D
:10225000CDE9128AFEF75EFC4020CDE90E0A4FF070
:1022600090403946CDE91088CDE9128AFEF752FC3C
:102270004FF6FF70CDE90A0830465946ADF8208088
:10228000CDF82480FEF711FE30684FF6F87120F08B
:1022900080003060B068CFF6FE7108400130B06059
:1022A000B069012161F30100B061B06920F00C0058
:1022B000B061B06920F0F000B061306A20F00A002F
:1022C0003062B06961F30920B061B0694FF68F7177
:1022D00020F44060B061B069CFF6FF5120F4704047
:1022E000B061306A20F0A000306270680840706011
:1022F000B06820F08000B060E06B072620F00C0092
:10230000E063E06840F40030E060E06800F4003032
:102310000E900E98206840F001002060206800F0C8
:1023200001000E900E98206840F0020020602068A6
:1023300008AC00F002000E900E984FF0904021463D
:10234000CDE908AACDE90A88CDF830800D96FEF7D0
:10235000E1FB4FF40040CDE9080A4FF090402146E0
:10236000CDE90A88CDE90C86FEF7D4FB0820CDE93B
:10237000080A40F20040C4F600002146CDE90A8870
:10238000CDE90C86FEF7C6FB40F60402C4F2020259
:10239000D0681A2161F30700D060D9F8500044F2E8
:1023A00010018843C9F85000D9F850000EA920F454
:1023B0004050C9F85000D9F8500020F02000C9F86A
:1023C0005000D9F8500020F04000C9F85000D9F86A
:1023D000500040F08000C9F85000D9F8500020F4B7
:1023E0004070C9F85000D9F8500020F44060C9F896
:1023F00050004CF2C060C0F22D00CDE90F080C2057
:10240000CDE913082846CDF83880CDE91188CDF8FC
:102410005480FEF7C3FD44F20840C4F2000000BF40
:1024200050E8001F21F0604140E80012002AF7D177
:1024300050E8001F21F0606140E80012002AF7D147
:10244000A86840F48040A860A86820F40040A86014
:10245000286820F078702860286820F4F810286038
:10246000286820F000502860686820F49040686078
:10247000A86820F02A00A860286840F001002860C1
:10248000E8698002FCD5E8694002F9D5FEF79CFABC
:10249000FEF7A4F8FEE7F1EE100A4FF6FF71C0F266
:1024A000C03120EA010040F04070E1EE100A7047B0
:1024B00000000000000000000102030406070809F4
:1024C0000000000001020304000C1814303C282412
:1024D000606C7874505C4844C0CCD8D4F0FCE8E41C
:1024E000A0ACB8B4909C88848C809498BCB0A4A80C
:1024F000ECE0F4F8DCD0C4C84C4054587C706468FC
:102500002C2034381C10040814180C0024283C30EB
:1025100074786C6044485C50D4D8CCC0E4E8FCF0DB
:10252000B4B8ACA084889C909894808CA8A4B0BCCB
:10253000F8F4E0ECC8C4D0DC5854404C6864707CBB
:102540003834202C0804101C2824303C1814000CAB
:102550004844505C7874606CE8E4F0FCD8D4C0CC9B
:102560008884909CB8B4A0ACA4A8BCB094988C808B
:10257000C4C8DCD0F4F8ECE064687C7054584C407B
:1025800004081C1034382C203C3024280C0014186B
:102590005C5044486C607478FCF0E4E8CCC0D4D85B
:1025A0009C908488ACA0B4B8B0BCA8A4808C98944B
:1025B000D0DCC8C4E0ECF8F4707C6864404C58543B
:1025C000101C0804202C3834000306050C0F0A09DF
:1025D0000B080D0E07040102F8250008000000207A
:1025E0001000000014020008082600081000002057
:1025F0002027000030020008010100000024F40040
:082600000101000000000000D0
:04000005080001D915
:00000001FF
