:020000040800F2
:100000004029002079020008F11D0008E5150008CC
:10001000ED1D0008AD150008853200080000000045
:10002000000000000000000000000000A71E000803
:10003000E115000800000000F31D0008910200080F
:10004000930200089302000893020008930200083C
:10005000930200089302000893020008930200082C
:10006000930200089302000893020008930200081C
:10007000930200089302000893020008930200080C
:100080009302000800000000930200089302000899
:1000900093020008930200089302000893020008EC
:1000A00093020008930200089302000893020008DC
:1000B00093020008930200089302000893020008CC
:1000C00093020008930200089302000893020008BC
:1000D00093020008930200089302000893020008AC
:1000E000930200089302000893020008930200089C
:1000F0009302000893020008930200080000000029
:1001000000000000930200080000000093020008B5
:10011000930200080000000093020008BD200008C0
:10012000930200089302000893020008930200085B
:100130009302000800000000000000009302000885
:100140009302000893020008000000000000000075
:10015000000000000000000000000000000000009F
:1001600000000000000000000000000093020008F2
:1001700093020008000000000000000000000000E2
:1001800000000000930200080000000000000000D2
:10019000000000000000000000000000000000005F
:1001A0000000000000000000930200089302000815
:1001B0009302000893020008930200080000000068
:1001C0000000000093020008000000000000000092
:1001D000930200089302000800F002F800F03CF8D7
:1001E0000AA090E8000C82448344AAF10107DA4592
:1001F00001D100F031F8AFF2090EBAE80F0013F0A8
:10020000010F18BFFB1A43F00103184734370000F1
:1002100054370000103A24BF78C878C1FAD8520782
:1002200024BF30C830C144BF04680C607047000070
:100230000023002400250026103A28BF78C1FBD8EF
:10024000520728BF30C148BF0B6070471FB503F08D
:10025000D6FA1FBD10B510BD00F047F91146FFF7E3
:10026000F5FF03F023F800F065F903B4FFF7F2FFA0
:1002700003BC00F06DF900000948804709480047B9
:10028000FEE7FEE7FEE7FEE7FEE7FEE7FEE7FEE746
:10029000FEE7FEE704480549054A064B70470000A3
:1002A000AB200008D901000840230020402900208D
:1002B000402500204025002053EA020C00F0698010
:1002C0002DE9F04B4FF00006002B1FBFB3FA83F56A
:1002D00003FA05F424FA05F65E4012BF1643B2FA9B
:1002E00082F502FA05F4C5F120051EBF22FA05FCCD
:1002F00044EA0C04203556EA044C4FEA144418BF73
:10030000641C4FF000084FF00009904271EB030CA1
:1003100039D3002919BFB1FA81F701FA07F6B0FA0B
:1003200080F700FA07F6C7F120071EBF20FA07FC86
:1003300046EA0C062037B6FBF4FCA7EB0507103F96
:1003400007F01F0BCBF120062CFA06F60CFA0BFB7C
:1003500044BFB3460026202FA4BF5E464FF0000BDB
:100360005BEA060C08BF4FF0010B19EB0B0948EBD9
:100370000608ABFB027C06FB02CC0BFB03CCC01BCC
:1003800071EB0C01C1E70B46024641464846BDE809
:10039000F08B13B5084318BF4FF0FF300146AFF3A1
:1003A0000080BDE81C407047032A40F2308010F006
:1003B000030C00F0158011F8013BBCF1020F624400
:1003C00098BF11F801CB00F8013B38BF11F8013B91
:1003D000A2F1040298BF00F801CB38BF00F8013B3E
:1003E00011F0030300F04F80083AC0F0088051F884
:1003F000043B083A51F804CBA0E80810F5E7121DB9
:100400005CBF51F8043B40F8043BAFF30080D207D7
:1004100024BF11F8013B11F801CB48BF11F8012BA3
:1004200024BF00F8013B00F801CB48BF00F8012BC6
:1004300070474FF0000200B51346944696462039A7
:1004400022BFA0E80C50A0E80C50B1F12001BFF48D
:10045000F7AF090728BFA0E80C5048BF0CC05DF8F3
:1004600004EB890028BF40F8042B08BF704748BF41
:1004700020F8022B11F0804F18BF00F8012B7047B5
:1004800070477047704710B5203AC0F00B80B1E854
:100490001850A0E81850B1E81850A0E81850203AB9
:1004A000BFF4F5AF5FEA027C24BFB1E81850A0E8C2
:1004B000185044BF18C918C0BDE810405FEA827CDC
:1004C00024BF51F8043B40F8043B08BF7047D207F3
:1004D00028BF31F8023B48BF11F8012B28BF20F894
:1004E000023B48BF00F8012B7047754600F02CF81E
:1004F000AE4605006946534620F00700854618B011
:1005000020B5FFF7C7FEBDE820404FF000064FF0D2
:1005100000074FF000084FF0000BAC46ACE8C009F4
:10052000ACE8C009ACE8C009ACE8C00921F007019B
:100530008D46704710B50446AFF300802046BDE8F5
:100540001040FFF792BE00000048704710000020E6
:1005500001491820ABBEFEE72600020070474FF0AD
:100560009040016841F440610160016841F44061DC
:100570000160016841F440510160016841F440515B
:1005800001602820C4F600000121C0F800144FF4D7
:100590008061016043F20000C4F20100016821F0B3
:1005A00040010160016821F0400101603020C4F287
:1005B0000200016821F001010160416921F001019F
:1005C000416140F2A800C2F200000021C0E9001120
:1005D00070472DE9F04387B0002541F248000595AA
:1005E000C4F202000168042641F0040101600168C0
:1005F000C4F6000601F004010691069901684FF463
:10060000806741F0010101600168E84601F00101E5
:1006100006910699016841F002010160016801F04C
:10062000020106910699816941F4805181618169D5
:1006300001F4805106910699416841F00101416041
:10064000416801F0010106910699416841F00201FB
:100650004160416801F0020106910699816941F407
:1006600080518161806900F48050069006984FF0B7
:100670009040016841F04041016040F21840C4F6EA
:10068000000001210160D6F8FC0361F30100C6F807
:10069000FC03306820F480603060CDE900714FF0D9
:1006A00090404146CDE90255049501F003F8776189
:1006B00020274FF0020906244FF090404146009752
:1006C000CDE90195CDE90355059400F0F3FF4020F5
:1006D0007761CDE900094FF090404146CDE90255E0
:1006E000CDE9045400F0E6FF3020C4F202000168B6
:1006F0000A2221F001010160D0F8D8170B2762F31C
:100700000701C0F8D81702684BF6EF71CFF6FF71FA
:100710000A400260026822F440520260026822F03D
:1007200020020260026822F040020260026842F089
:1007300080020260026822F440720260026822F4C1
:1007400040620260426922F00102426140F60C02FE
:10075000C4F20202136867F307031360426940F2B0
:10076000A8031140103141614169C2F2000321F434
:10077000405141614169033321F0200141614169E8
:10078000052721F040014161416941F0800141614B
:10079000416921F440714161416921F44061416145
:1007A00043F20001C4F201010A6822F040020A602B
:1007B00001F10C028260C360436867F30F0343607A
:1007C000C261826967F30F0282614A6842F00202E5
:1007D0004A604A6842F001024A600A6842F04002F8
:1007E0000A60016841F00101016007B0BDE8F083D3
:1007F00040F20040C4F600000168022241F0C0014E
:100800000160016841F0C0010160016841F440717C
:100810000160016841F440710160802181624FF6FE
:100820002841CFF6FF71425043F60040C4F2000069
:10083000016821F040010160016821F04001016080
:1008400040F20840C4F20200016821F00101016099
:10085000416921F00101416140F2B000C2F20000A3
:100860000021C0E9001170472DE9F04387B0002650
:1008700041F248000596C4F20200016840F20044CB
:1008800041F0040101600168C4F6000401F00401B4
:10089000069106990168022741F001010160016893
:1008A000E84601F0010106910699016841F0020154
:1008B0000160016801F0020106910699016941F4A5
:1008C00000410161016901F4004106910699416806
:1008D00041F001014160416801F001010691069972
:1008E000416841F002014160416801F00201069156
:1008F0000699016941F400410161006900F400407A
:10090000069006984FF09040016841F04041016028
:100910008020A0612068012161F38F302060606831
:1009200020F080006060CDE900714FF090404146BA
:10093000CDE90266049600F0BDFE4FF61840CFF6F2
:10094000FF70275008254FF0060920464146CDE9A3
:100950000057CDE902660496CDF8149000F0AAFE87
:100960001020A561CDE9000720464146CDE9026689
:10097000CDE9046900F09EFE40F20840C4F2020096
:1009800001680E2221F001010160D0F818140F2730
:1009900062F30701C0F8181402684BF6EF71CFF646
:1009A000FF710A400260026822F44052026002684D
:1009B00022F020020260026822F040020260026817
:1009C00042F080020260026822F440720260026813
:1009D00022F440620260426922F00102426140F664
:1009E0002402C4F20202136867F30703136042692A
:1009F00040F2B0031140103141614169C2F200037D
:100A000021F4405141614169033321F020014161EA
:100A10004169052721F040014161416941F08001B0
:100A20004161416921F440714161416921F44061B2
:100A3000416143F60041C4F200010A6822F040021D
:100A40000A6001F10C028260C360436867F30F0320
:100A50004360C261826967F30F0282614A6842F0B3
:100A600002024A604A6842F001024A600A6842F0A3
:100A700040020A60016841F00101016007B0BDE871
:100A8000F08370B54FF090452868012161F38B2009
:100A900030262860C4F20206306843F2000420F0D9
:100AA000010030607069C4F2010420F0010070613F
:100AB000204600F0C4FF4FF45B70206041F20370E9
:100AC0006060B069052161F30F00B061706861F387
:100AD0000F0070607069022140F0010070612868A9
:100AE00061F38B202860306840F00100306070BDF9
:100AF000B0B53025C4F20205286843F2000420F0A6
:100B0000010028606869C4F2010420F001006861F6
:100B1000204600F094FF40F26F30206041F20370F5
:100B20006060A869052161F30F00A861686861F33E
:100B30000F006860686940F001006861286840F053
:100B400001002860B0BD70B540F20045C4F6000554
:100B50002868012161F3871040F208462860C4F23A
:100B60000206306843F6004420F0010030607069EE
:100B7000C4F2000420F001007061204600F05FFF25
:100B80004FF45B70206041F203706060B069052132
:100B900061F30F00B061706861F30F0070607069FD
:100BA000022140F001007061286861F3871028601D
:100BB000306840F00100306070BDB0B540F20845CB
:100BC000C4F20205286843F6004420F001002860C2
:100BD0006869C4F2000420F001006861204600F05A
:100BE0002EFF40F26F30206041F203706060A86910
:100BF000052161F30F00A861686861F30F00686068
:100C0000686940F001006861286840F001002860D0
:100C1000B0BD40F28400C2F2000090F8200070479E
:100C200080B540F2840EC2F2000E9EF81730844662
:100C30004FF0010003B180BD8EF818008EF8170048
:100C400000208EF808C08EF80910CEF8102080BD64
:100C500040F2840CC2F2000C9CF81730002B4FF0CD
:100C600001030BD18CF8183002238CF817300023C5
:100C70008CF808008CF80910CCF810201846704742
:100C800040F28401C2F20001087E032802D0087EEF
:100C9000022804D10020C875002008767047C87D5E
:100CA0000028F9D0087E04281CBF01207047F3E714
:100CB0002DE9F04F8FB040F200444FF6184BC4F6C8
:100CC0000004CFF6FF7B4FF480504FF6284744F8DE
:100CD0000B00CFF6FF774FF40060E0514020A06199
:100CE0002020A06241F29030C2F200000078032878
:100CF00000F28682DFE810F0040007006C01870232
:100D0000FFF767FC90E2582644F20045C4F2020661
:100D1000C4F2000500F0E0FF4FF48060E0510120D4
:100D2000A06140F20040C4F200004FF0000AC0F899
:100D300024A00168E84641F00101016040462021FD
:100D4000FFF777FB41F24800C4F20200016C0DF19D
:100D5000200921F00C0101640168022741F004011F
:100D6000016001684FF0070B01F004010891089938
:100D7000016841F001010160016801F00101089181
:100D80000899016841F002010160016801F0020167
:100D900008910899016941F400310161016901F488
:100DA000003108910899416841F0010141604168B2
:100DB00001F0010108910899416841F00201416088
:100DC0004068494600F00200089008984FF09040B3
:100DD000CDE90877CDE90AAACDF830A0CDF834B036
:100DE00000F068FC4FF4004008A981E881044FF04E
:100DF00090404946CDE90BAACDF834B000F05AFC3A
:100E0000082008A981E8810420464946CDE90BAABB
:100E1000CDF834B000F04EFC30681A2120F001000B
:100E20003060D6F8B8071B2361F30700C6F8B8078F
:100E300031684BF6EF70CFF6FF70014031603168DA
:100E400021F440513160316821F020013160316876
:100E500021F040013160316841F08001316031683A
:100E600021F440713160316821F440613160716971
:100E700021F00101716140F61401C4F202010A6817
:100E800063F307020A60716908401030706170698D
:100E9000414620F440507061706920F0200070617C
:100EA000706920F040007061706940F080007061EE
:100EB000706920F440707061706920F44060706166
:100EC0004CF2C060C0F22D00CDE9010A0C20CDE942
:100ED000050A2846CDF800A0CDE903AACDF81CA04C
:100EE00000F068FE44F20840C4F2000050E8001F21
:100EF00021F0604140E80012002AF7D150E8001FBD
:100F000021F0606140E80012002AF7D1A96841F49D
:100F10008041A960A96821F40041A960296821F0F5
:100F200078712960296821F4F8112960296821F075
:100F300000512960696821F490416960A96821F035
:100F40002A01A960296841F001012960316841F056
:100F500001013160716941F001017161E969890242
:100F6000FCD5E9694902F9D58021A16129682A46A1
:100F700021F0010142F8241B2168022363F3871149
:100F800021604FF090410F6863F39F770F6041F647
:100F9000AC61C2F20001B260F1607168042262F3D8
:100FA0000F01716050E8001F41F0400140E800125D
:100FB000002AF7D12868102161F359502860286869
:100FC00061F314402860286840F00100286013E1B4
:100FD000582644F20045C4F20206C4F20005FFF7A9
:100FE000F8FA8020A06120684FF0010969F38F3082
:100FF00020606068E84620F0800060604FF0000AE2
:1010000040462021CDF834A0FFF713FA41F2480002
:10101000C4F202004168022741F0010141604168C9
:1010200001F001010E910E99416841F00201416009
:10103000416801F002010E910E99016941F40031FD
:101040000161016901F400310E910E99016841F0CE
:1010500004010160016801F004010E910E9901681C
:1010600041F001010160006800F001000E900E984F
:1010700008A880E880060DF120094FF0904049460D
:10108000CDE90BAA00F016FB102044F80B70CDE957
:1010900008074FF0070B20464946CDE90A7ACDF8FC
:1010A00030A0CDF834B000F005FB082008A981E895
:1010B000810420464946CDE90BAACDF834B000F0B2
:1010C000F9FAD6F8B8071A2161F30700C6F8B8078D
:1010D00030684BF6EF71CFF6FF7108403060306832
:1010E0001B2320F440503060306820F02000306036
:1010F000306820F040003060306840F080003060A0
:10110000306820F440703060306820F44060306017
:1011100040F61400C4F20200026863F307020260A2
:1011200070690840103070617069414620F4405089
:101130007061706920F020007061706920F04000DB
:101140007061706940F080007061706920F44070D7
:101150007061706920F4406070614FF4E120CDE966
:10116000010A0C20CDE9050A2846CDE903AACDF8ED
:101170001CA000F01FFD286840F00100286000BF9F
:10118000E8698002FCD5E8694002F9D541F20040E7
:10119000C4F20000C16841F00101C160016841F082
:1011A0000101016041F64C70C2F20000F06005F1EF
:1011B0002400B0607068FC2161F30F00706042F29F
:1011C0004800C2F20000306205F12800F06144F2EC
:1011D0000840C4F2000000BF50E8001F41F0800149
:1011E00040E80012002AF7D150E8001F41F040010A
:1011F00040E80012002AF7D1306840F0010030606A
:101200000FB0BDE8F08F00F067FD4FF48060E05153
:101210000120A06140F20040C4F2000000214162C0
:10122000016841F0010101600FB0BDE8F04FFFF728
:101230001BBB000040F28402C2F20002D17D0729EC
:1012400000F2A380DFE811F0290108003100580006
:101250006E00A300B9009C00107A0C2300F07F01FF
:1012600043F6301C83EA1113C0F6000C1CF803305F
:1012700000F00F0058401CF800003C23A3EB800056
:1012800000F47F7040EA811040F4803040F00200AA
:101290001060022010750020506050810320D0752E
:1012A0004FF48030D0610121F7E0107A0C2300F078
:1012B0007F0143F6301C83EA1113C0F6000C1CF8C2
:1012C000033000F00F0058401CF800003C23A3EB53
:1012D000800000F47F7040EA811000F1011010607E
:1012E000012100200323117550815060D375A2F8AD
:1012F00015004FF4803013E0D17A0131D172C9B2B8
:10130000C1F1120C536800FA0CF018431129506017
:101310005FD81068D1690140D06918BF0121400829
:10132000D061BAE0D17A5368C1F10D0C00FA0CF02B
:1013300018430D2950605CD3506843F63013C0F356
:101340000321C0F60003595CC0F303104840185C49
:101350005168C0F10F0001F00F0188424CD1506874
:101360001169937A0009C854507A917A0131CBB24D
:101370008342917280F07E8000205060D07292E7AC
:10138000107B10B10138107386E000211FE0917DC1
:10139000032900F27C80DFE801F002333D53517DE8
:1013A0000123022993756ED001296ED000296ED1D8
:1013B00001210028517572D169E004201076507B1C
:1013C000002101305073507B0E2866D15173D175C6
:1013D00063E05168107D430803F5803399420DD1D5
:1013E00000210523D172022808BF0423D375516060
:1013F00059E7481CD0724FE0032049E0012047E044
:10140000022100239175D1725360C8B31068C0F3F4
:10141000C02142E0D17A5368C1F10D0C00FA0CF002
:1014200018435060481CD0721168C0B2C0F10D035F
:10143000D9400D2801F0010104BF032090752CE074
:101440000021D37A9175C3F10D0153688840184388
:10145000506050681168B0EB510F18D1507A917AF2
:101460000131CBB283429172FFF41DAF022050755F
:10147000107611E0032010760720D0750E2082E749
:1014800082F8201006E010B9F6E7012807D1022003
:1014900082F820000620D0750021084670471069A8
:1014A000917A43F6301C405CC0F6000C01091CF830
:1014B000011000F00F0359401CF801101E23A3EB8C
:1014C000410101F4FF7141EA401010601068C0F35F
:1014D0000031E2E780B541F29030C2F200000078BE
:1014E000032804D0012806D048BBFFF7CAFABDE89C
:1014F0008040FFF728BB5820C4F202000168042294
:1015000021F001010160416862F30F01416001684F
:1015100041F00101016040F20300C2F200000078D6
:10152000012806D058B944F22840C4F200008121B5
:1015300004E044F22840C4F200002221016080BD92
:1015400080B541F29030C2F200000078032804D048
:10155000012806D048BBFFF7CBFABDE88040FFF773
:101560002CBB5820C4F202000168042221F00101C2
:101570000160416862F30F014160016841F00101BF
:10158000016040F20300C2F200000078012806D09A
:1015900058B944F22840C4F20000B12104E044F2FA
:1015A0002840C4F200001221016080BDFEE710B5A2
:1015B000044600F085FC41F29030C2F20000047055
:1015C000017849B10178012906D00178022903D0B8
:1015D0000078032818BF10BDBDE81040FFF768BBB6
:1015E00070470000FEE740F28400C2F20000007E77
:1015F000704780B50822C5F200021368D2F80021B6
:101600001A43D2071CBF012080BDD1E900C3826804
:1016100043F2E00ECFF6C07E02EA0E0243B1D1E9FA
:1016200002E141EA0E01114341EA0C01194301E0D4
:1016300042EA0C018160002080BD8268D2071CBF95
:1016400001207047C2684CF2180322EA030CD1E96A
:101650000032896843EA0C031A431143C160002039
:101660007047B0B58268D2071CBF0120B0BDD1E978
:1016700000C2C3684CF21C0ECFF6F07E0EEA030ED9
:1016800032B101F1080538CD496923432B4303E00A
:10169000D1E9033449692343194341EA0C0141EA82
:1016A0000E01C160016B21F00F01114301630020A5
:1016B000B0BD00002DE9F04F0C6894FAA4F2B2FA24
:1016C00082F234FA02F361D04FF001084FF0030BBD
:1016D00008FA02F314EA030C54D0D1F80490A9F1EB
:1016E0000103022B1CD29CFAACF6B6FA86F77E00F8
:1016F000D0F808A00BFA06F3D1E902BE2AEA030AE1
:101700000BFA06F545EA0A05856045684FF0030BBC
:10171000A5430EFB04F4DB432543456008E000BF0E
:101720009CFAACF3B3FA83F77E000BFA06F3DB43C3
:101730000D69C468B5401C402543B9F1020FC5606E
:1017400019D14FEA1C2494FAA4F4D1F814E0BCF5A2
:10175000807F28BFB4FA84F74FF0240438BF2024D8
:1017600050F804C0BF000F25BD402CEA05050EFA55
:1017700007F72F430751D1E900470568B7402B40D1
:101780003B430360013234FA02F3A1D10020BDE8EB
:10179000F08F44F6D351C1F26201A0FB01014FF07A
:1017A000FF3000EB91104EF21001CEF200014860C4
:1017B00000208860052008607047000070B504466E
:1017C0000068C00733D10D4620684EF6F311CEF6FF
:1017D000FF7105F1080608404ECE08431843304318
:1017E0002060606820F4405010436060A869A168E0
:1017F00021F440710843A0604FF4406000F02EF8DF
:10180000B8B16A68AAB129880EA333F81110002371
:10181000B0FBF1F00026010E000210EB520041F186
:101820000001FEF749FD6FF31F50E06002E0012662
:1018300006E001262888E16A21F00F010843E062F2
:10184000304670BD010002000400060008000A00D6
:101850000C001000200040008000000110B541F293
:101860000004C4F20204D4F8881008404FEAB02003
:10187000032807D002280CD0012813D1BDE810405E
:1018800000F0B8BAD4F890004FF4004101EA80307B
:1018900010BD206842F200414005C0F2F40101EAA7
:1018A000E07010BD00F0A6FAA16843F61802C1F37B
:1018B0000311C0F60002515CA26843F62803C2F38C
:1018C0000222C0F600039A5C01F01F01C84002F03A
:1018D0001F01C84010BD10B5C0281CBF002010BD9E
:1018E00041F20004C4F20204D4F88800C0F381106D
:1018F000032807D002280CD0012813D1BDE81040DE
:1019000000F078BAD4F890004FF4004101EA80303A
:1019100010BD206842F200414005C0F2F40101EA26
:10192000E07010BD00F066FAA16843F61802C1F33A
:101930000311C0F60002515CA26843F62803C2F30B
:101940000222C0F600039A5C01F01F01C84002F0B9
:101950001F01C84010BD10B530282CD00C2833D042
:1019600003281CBF002010BD41F20004C4F2020491
:10197000D4F888004FF4404161F39F00B0F1031F99
:1019800034D00221C0F20301884236D00121C0F2D6
:101990000301884226D000F02DFAA16843F6180210
:1019A000C1F30311C0F60002515CA26801F01F01EF
:1019B000C2F3C22239E041F20004C4F20204D4F8B6
:1019C0008800C0F3011007E041F20004C4F20204F1
:1019D000D4F88800C0F38100032807D002280CD077
:1019E000012813D1BDE8104000F004BAD4F89000EB
:1019F0004FF4004101EA803010BD206842F20041FE
:101A00004005C0F2F40101EAE07010BD00F0F2F907
:101A1000A16843F61802C1F30311C0F60002515C3D
:101A2000A26801F01F01C2F3022243F62803C0F6A8
:101A300000039A5CC84002F01F01C84010BD43F685
:101A40000001C4F2000188421AD043F60041C4F2FA
:101A50000001884220D043F20001C4F20101884213
:101A60001CBF0120704741F23800C4F202008168B7
:101A700041F480518160816821F48051816017E0D8
:101A800041F23800C4F20200016841F48041016073
:101A9000016821F480410AE041F23800C4F20200FA
:101AA000016841F400410160016821F400410160D6
:101AB0000020704740F20401C2F200010860704744
:101AC00040F2FF7C02460068C4F2000C624510DD63
:101AD00040F60003C4F200039A4213D043F20043DD
:101AE000C4F201039A420DD042F60043C4F201034E
:101AF00006E0B2F1804F05D040F20043C4F200038B
:101B00009A4203D14B6820F07000184343F2FF3330
:101B1000C4F201039A4209DC624516DCB2F1804F3F
:101B200028D040F20043C4F2000321E044F2FF3326
:101B3000C4F201039A4211DC43F20043C4F20103F0
:101B40009A4217D044F2000310E040F60003C4F2BA
:101B500000039A420ED042F6004307E044F6000329
:101B6000C4F201039A4205D044F20043C4F20103D7
:101B70009A4203D1CB6820F4407018431060886803
:101B8000D062A2F18040A0F596300B884FEAB020D9
:101B90000728936207D8012303FA00F010F0E50F3D
:101BA0001CBF08691063506940F0010100205161B9
:101BB0007047000070B504460068C0071CBF0120D4
:101BC00070BD0E46206846F6F311CEF6FF71084050
:101BD000D6E9021CD6E904320843F56918431043DC
:101BE00028432060606820F4405040EA0C006060A8
:101BF000B069A16821F440710843A06044F6FF3049
:101C0000C4F2000084424FF001000DDC44F20041B8
:101C1000C4F200018C4215D044F60001C4F2000168
:101C20008C423AD130200EE044F60041C4F200016B
:101C30008C420BD043F60001C4F201018C422CD13E
:101C4000032000E00C20FFF786FE02E0C020FFF733
:101C500042FEC8B17168B9B132680B2A1CD812A310
:101C600053F82220F369B0FBF2F0B3F5004F0DD129
:101C7000400000EB5100B0FBF1F04FF6F071014075
:101C8000C0F34200084406E0012006E000EB5100EA
:101C9000B0FBF1F080B2E06000203188E26A22F00F
:101CA0000F021143E16270BD01000000020000005C
:101CB0000400000006000000080000000A00000008
:101CC0000C00000010000000200000004000000098
:101CD00080000000000100002DE9F0418CB040F2CE
:101CE0000044C4F20004E06D0DF11C0820F00F3038
:101CF0000130E06540461421FEF79BFB41F24C00A9
:101D0000C4F20200C16801AE41F00201C160C168C5
:101D1000022701F00201019101990168002541F0BB
:101D2000010101600068314600F001000190019856
:101D3000102001904FF090400297CDE90355CDE976
:101D40000557FFF7B7FC4020CDE901074FF0904061
:101D50003146CDE90355CDE90557FFF7ABFC4FF60A
:101D6000FF70CDE9090520464146ADF81C500895A5
:101D7000FFF7A6FE20684FF6F87120F08000206083
:101D8000A068CFF6FE7108400130A060A069012173
:101D900061F30100A061A06920F00C00A061A069BE
:101DA00020F0F000A061206A20F00A002062A06903
:101DB00061F30920A061A0694FF68F7120F44060A3
:101DC000A061A069CFF6FF5120F47040A061206AA5
:101DD00020F0A0002062606808406060A06820F0E9
:101DE0008000A0600CB0BDE8F0810000FEE70000BC
:101DF000FEE7704741F20C01C4F2020151F8040CF5
:101E000000F00C0242F200400C2AC0F2F40007D0AD
:101E1000082A18BF704741F20020C0F27A007047CC
:101E20000A68034602F00302032A04BF41F20023BA
:101E3000C0F27A03022A0A6808BF0346C2F30620EA
:101E40000A680968C2F3031258430132B0FBF2F08A
:101E5000C1F34161022202EB4101B0FBF1F0704796
:101E60005820C4F202000168FC2221F00101016047
:101E700041F64C71C2F20001C160416862F30F018A
:101E8000416044F20841C4F2000100BF51E8002F54
:101E900042F0400241E80023002BF7D1016841F0F5
:101EA000010101607047704710B50446FFF79BFBC6
:101EB00000B110BD40F20000C2F20000047010BD7D
:101EC00010B51824C4F600044FF4805020604FF47D
:101ED000006020614020C4F800042020C4F81004F1
:101EE00041F29030C2F20000017869B30178012913
:101EF0002DD140F20040C4F20000016821F0010140
:101F00000160016821F00101016044F20040C4F267
:101F10000000016821F001010160016821F0010168
:101F200001605820C4F20200016821F00101016043
:101F3000416921F00101416141F6AC60C2F200004B
:101F400000680021016010BDFEF709FB3FE0017849
:101F500002292CD1FEF703FB44F20040C4F200003A
:101F6000016821F001010160016821F001010160B7
:101F70005820C4F20200016821F0010101604169AA
:101F800021F0010141618020C4F810040220206189
:101F900042F24800C2F20000FC21FEF74AFA41F684
:101FA0004C70C2F20000FC21FEF743FA10BD00782D
:101FB000032818BF10BD40F20040C4F200000168C1
:101FC00021F001010160016821F001010160BDE81B
:101FD0001040FEF70DBC000010B582B042F20000C8
:101FE000C4F202000168042262F30301016000BF31
:101FF000016801F00F010429FAD147F20001C4F28F
:1020000000010A68012341F2000063F34A22C4F28E
:1020100002000A60016841F48031016001688903AF
:10202000FCD5C16848F20C02CFF6FF12114042F213
:1020300003421143C160C16841F08071C160016811
:1020400041F08071016000BF01688901FCD58168A1
:10205000082241F003018160816862F30711816009
:10206000816801F00C010C29FAD1552101910199E7
:1020700011B101990139F9E7816844F2004421F076
:10208000F00181608168C0F6950421F4E06181600F
:10209000816821F4605181602046FFF77AFB204679
:1020A00002B0BDE81040FFF705BD4EF68850CEF2F5
:1020B0000000016841F470010160704770B541F2A1
:1020C0001040C4F200006FF00101016041F2903055
:1020D000C2F200000078032800F08380012852D06B
:1020E000002840F0F08140F2A80CC2F2000CDCF8AD
:1020F000041040F27C0309BAC2F2000319601968A7
:1021000043F630028E0FC0F60002965DC1F387558C
:102110006E40965DC1F387356E40965DC1F38711C1
:102120007140515C1E6881F0FF0106F03F06B6EB7E
:10213000910F40F21801C4F6000140F09F8040F278
:102140000106C2F200060025357040F27005C2F2A9
:1021500000051E682C6804F07F4444EA16262E60B1
:102160002E682C6864F3170606F180762E601B68D3
:1021700003F0C003C02B40F0DB804FF400630B6022
:102180004FF48053D9E05C20C4F2020000681824A8
:102190000004C4F6000400F08B804020C4F8000462
:1021A0002020C4F8100441F6B060C2F200000178AB
:1021B000013101700078FF2808D140F20300C2F21B
:1021C00000000178B1FA81F14909017040F209007B
:1021D000C2F200000078012840F0A780FFF77AF9EA
:1021E00057E140F2B000C2F20000406843F630030D
:1021F00001BA40F28000C2F2000001600168C0F63E
:1022000000038A0F9A5CC1F3875672409A5CC1F34F
:10221000873672409A5CC1F387115140595C02685D
:1022200081F0FF0102F03F02B2EB910F40F2180182
:10223000C4F600012FD140F20202C2F200020023D4
:10224000137040F27403C2F2000302681E6806F0C5
:102250007F4646EA12221A601A681E6866F3170261
:1022600002F180721A60006800F0C000C02840F0DF
:10227000B6802020C1F800044020B4E04FF4805321
:102280000B604FF400630B6140F20103C2F20003E4
:1022900001261E7052E04020C1F800042020C1F841
:1022A000100440F20200C2F20000012101700AE1B4
:1022B00041F6AC65C2F20005286843F63002C0F36F
:1022C0000161C0F60002515CC0F307435940515C04
:1022D000C0F307235940515CC3B25940515C820E90
:1022E00081F0FF01B2EB910F40F0A88040F20201B3
:1022F000C2F2000100220A7040F27401C2F2000131
:102300000A68C0F3D21002F07F42104408600868E7
:102310000A6862F3170000F1807008602020C4F89A
:1023200000044020C4F8100494E0FFF709F9B0E07D
:102330004FF480530B604FF400630B6140F2B00325
:10234000C2F200035E6840F2800536BAC2F20005B0
:102350002E602E68B40F145DC6F387506040105C89
:10236000C6F387346040105CC6F387167040105C7B
:102370002A6880F0FF0002F03F02B2EB900F21D1FB
:1023800040F20200C2F200000022027040F2740229
:10239000C2F200022868166806F07F4646EA10205E
:1023A00010601068166866F3170000F18070106006
:1023B000286800F0C000C02818D12020C1F800040F
:1023C000402017E04020C1F800042020C1F810048C
:1023D00040F20200C2F20000012101700CE0402036
:1023E000C1F800042020C1F810046CE04020C1F8BE
:1023F00000042020C1F8100440F20000C2F20000E6
:102400000178012910D051B9DCF80000C0F3006058
:10241000FEF710FF012802D1FEF733FB01E0FEF7C3
:1024200067FBFEF7CAFB4EE01868C0F30060FEF7DA
:1024300001FF012843D1FEF786FB42E04020C4F8AB
:1024400000042020C4F8100440F20200C2F2000090
:102450000121017040F20806C2F200063078FEF752
:10246000E9FE012803D1FFF735F8012002E0FFF76C
:1024700067F8002040F20901C2F2000108702878D4
:102480000021C0F30010307041F6B060C2F20000CD
:10249000017040F21040C4F200000168C90706D183
:1024A0004FF4805020604FF4006020610BE040F258
:1024B00078014069C2F200010A88088003E0FEF753
:1024C0007CFBFEF715FBBDE8704000F041B8000052
:1024D00041F20041C4F20001C86840F00100C86048
:1024E0000A68082042F001020A6042F24411C4F274
:1024F0000200C2F20001C16048F22401C4F20001EE
:1025000042F244228160C2F2000204310262C161DF
:1025100041684FF4807262F30F01416048F2080194
:10252000C4F2000151E8002F42F0400241E80023CC
:10253000002BF7D151E8002F42F0800241E8002340
:10254000002BF7D1016841F00101016070470000E4
:102550002DE9F04F83B0FFF746F841F6A95804285B
:10256000C2F2000816D141F6B160C2F20000017853
:102570000131017001780E290CD10021017041F662
:10258000A850C2F2000003210170082088F8000062
:10259000FEF776FBFFF727F8032807D141F6AA508C
:1025A000C2F2000000F0CEFDFEF76AFB98F80000D2
:1025B000082800F2EA82DFE810F009002200E802B1
:1025C000D100D80026015700A101FA010C20C4F265
:1025D0000200006881B241F6B460C2F200000068F7
:1025E000C1F58071814240F0FA8141F63D70C2F23E
:1025F00000000078002800F0CB820420C6E241F6FB
:10260000B869C2F2000948468521FDF712FF41F67C
:102610004870C2F200000078002800F0F98141F60D
:10262000B46741F6447AC2F20007C2F2000A3C687D
:10263000DAF8000042F2441520440138C0B2C2F278
:102640000005285CDAF8001001390A0600F054820F
:10265000CAB20021234600BFDEB2AE5D013A31446A
:1026600003F10103F8D148E241F29431C2F20001D2
:10267000B1F80004002800F0888240F27000C2F235
:102680000000006840F2780202900290C2F200025C
:102690001288000EADF80420ADF8042091F8022451
:1026A000824200F0758281F8020491F80404029AD3
:1026B00041F8202091F80404013081F8040441F627
:1026C000A430C2F2000090F80322BDF8043020F8D4
:1026D000123090F80322013280F8032291F804248A
:1026E00091F80334D21AD2B2282AC0F0518291F85C
:1026F000032491F804349A4225D041F6AA52C2F23A
:10270000000200270432022391F80364FDB251F85D
:1027100026600437565190F80262FDB230F8166018
:1027200053FA87F7565391F80364013681F803642E
:1027300090F80262013680F8026291F8036491F821
:102740000454AE42E0D1B1F80024013AA1F80024CB
:10275000B0F80022013AA0F80022BFE141F6A850EB
:10276000C2F200000121017032E041F63D77C2F271
:1027700000073978002900F00B8241F63E79C2F259
:10278000000999F8002040F2B804C2F20004862340
:1027900012FB034002FB03F6037914F806B0B0F80D
:1027A00002A0102B00F2F781461DDFE813F01300A2
:1027B000930211001100A602110011001100D002B5
:1027C000D602DC02EC02F30206031100110333030C
:1027D0000820DBE1FEF707FF012800F0D981BBF1FB
:1027E000400F06D10AF01F0006304FF0410B86F86B
:1027F0004100504659463246FEF72AFA002840F07A
:102800008C8200F0E6BB41F29431C2F20001B1F8D3
:102810000004002800F0B98140F27000C2F200000C
:10282000026840F2740002920192C2F20000006855
:10283000120E0290029091F80234934200F0A881A7
:1028400081F8022491F80424019B41F8223091F888
:102850000424013281F80424020E41F29C70C2F279
:10286000000080F8022490F80424029B40F82230F3
:1028700090F80424013280F8042491F8042491F89B
:102880000334D21AD2B21E2AC0F0828191F80324F6
:1028900091F804349A4226D041F6AA52C2F20002BC
:1028A00000270432042300BF91F80364FDB251F8FD
:1028B00026600437565190F80364FDB250F8266044
:1028C00053FA87F7565191F80364013681F803648F
:1028D00090F80364013680F8036491F8036491F87A
:1028E0000454AE42E0D1B1F80024013AA1F800242A
:1028F000B0F80024013AA0F80024EFE040F2000014
:10290000C2F200000178002900F0998000780128C7
:1029100040F03E8141F29C71C2F20001B1F8000426
:10292000002800F0328140F27400C2F2000000681A
:102930000290029091F80224000E824200F0288159
:1029400081F8020491F80404029A41F8202091F8D9
:102950000404013081F8040491F8040491F803247C
:10296000801AC0B23C28C0F0138191F8030491F89A
:102970000424904200F0AD8041F6AA520020C2F239
:102980000002042391F8037452FA80F651F827707C
:1029900053FA80F0776091F80374013781F803747B
:1029A00091F8037491F80464B742EBD191E041F6D9
:1029B000A855C2F2000528780138052800F2E28007
:1029C000DFE800F003B6C1E0E0D241F6AA500121F1
:1029D000C2F20000CEF6007101600121B1E042F2C6
:1029E0004412C2F20002125C41F64873C2F20003C4
:1029F0001A701A78081A511D41F64472C2F2000288
:102A000011601168C0B28842C0F0C2800120BDE0F0
:102A100041F6A850C2F2000006210170082088F893
:102A2000000041F6B46041F64472C2F20000C2F206
:102A30000002016812681144C9B20160A8E041F2C5
:102A40009431C2F20001B1F80004002800F09D802A
:102A500040F27000C2F2000000680290029091F80B
:102A60000224000E824200F0938081F8020491F863
:102A70000404029A41F8202091F80404013081F8FE
:102A8000040491F8040491F80324801AC0B23C288D
:102A90007ED391F8030491F80424904219D041F6B2
:102AA000AA520020C2F20002042391F8037452FAE1
:102AB00080F651F8277053FA80F0776091F803742C
:102AC000013781F8037491F8037491F80464B742F4
:102AD000EBD1B1F800040138A1F80004B1F800040A
:102AE000020A41F6AA50C2F200004270B1F8001486
:102AF000817000F027FB4BE000214942C9B28842B7
:102B00000ED1DAF800002044B0F5807F00F2868014
:102B1000DAF8002041F6B8602919C2F200008AE014
:102B200041F6A850C2F20000012101700320C9E063
:102B300041F6AA500121C2F20000CEF600710160F8
:102B4000022101710BE041F6AA540120C2F20004F7
:102B5000CDF600602060FEF75CF82071204600F0A2
:102B6000F1FA0020287013E041F6AA500121C2F2C8
:102B70000000CEF6007101600621017100F0E2FA5A
:102B80000020287000BF00BF00BF002088F80000B0
:102B900003B0BDE8F08FA3F179000A283FF618AE24
:102BA000DFE810F00C000B000B000B000B000B001B
:102BB0000B0066019801B101CE0209E641F6AA5068
:102BC000C2F200007923C370F023037041F2943302
:102BD0000AF10100C2F200030026A3F8000483F802
:102BE000046483F8036483F8026441F6A433C2F2F8
:102BF0000003A3F80002501C4EF28F324243520DE4
:102C000002EBC202A0EB820083F8036283F8026247
:102C100089F80000481E38700620B7E7C4F58076B2
:102C2000291948463246FDF7BFFBDAF8001009EBD8
:102C300006008A1B2946FDF7B7FB41F63D70C2F23C
:102C400000000678232E36D841F63F73B9F801000C
:102C5000C2F2000393F800B040F2B80C99F80310E8
:102C600000BAC2F2000C862599F80020000C1BFB6C
:102C700005C30BFB05F519715880581D09F10401B6
:102C80000CF80520FDF790FB0BF101004EF28F319F
:102C90004143490D01EBC101A0EB810041F63F71B9
:102CA000C2F20001087041F63D71701CC2F20001D1
:102CB0000870042006E041F6A850C2F2000002218C
:102CC0000170082088F80000DAF800002044C0B243
:102CD00038605DE73078032800F2E081DFE810F02B
:102CE0000400C301CB01D50141F29031C2F20001D1
:102CF0000978002940F0D081D0E1FEF774FC01286A
:102D00003FF446AF307802AA8DF808001820012160
:102D1000FDF79EFF002800F0D58141F64074C2F215
:102D2000000420780130C1B203292070FFF430AFD5
:102D3000FDF76FFF002800F0918141F6A850C2F224
:102D4000000003210170082088F800003FE140F2F4
:102D50001840C4F6000080231AE040F21840C4F680
:102D6000000080231BE03078012800F06D810028EE
:102D700040F0948140F20001C2F20001097800297C
:102D800040F069818AE140F21840C4F60000012356
:102D9000036105E040F21840C4F60000012303601F
:102DA000002088F80000501C4EF28F324243520D32
:102DB00002EBC202A0EB82007FE1FEF714FC0128C7
:102DC00000F0A580504659463246FDF741FFD5E058
:102DD00041F6AA54C2F20004FC20C0F6007021465D
:102DE00041F8040B30465A4600F0DCF9204600F06A
:102DF000A9F999F800004EF28F3101304143490D95
:102E000001EBC101A0EB8100397889F80000481E70
:102E10003870BAE641F6AA50C2F200001023C3701F
:102E2000002440F2000380F800B0A0F80140C2F294
:102E300000031B78012B0BD140F27401C2F2000198
:102E400009680291416000F07DF999F80020397815
:102E5000501C4EF28F324243520D02EBC202A0EBE5
:102E6000820089F80000481E387088F800408FE61C
:102E700041F6AA50C2F200008023C370F023037011
:102E800041F294330AF10100C2F200030026A3F8D4
:102E9000000483F8046483F8036483F8026441F255
:102EA0009C73C2F20003A3F80004501C4EF28F3250
:102EB0004243520D02EBC202A0EB820083F804648D
:102EC00083F8036483F8026489F80000481E3870B0
:102ED00005205BE641F6AA50C2F200008123C370D0
:102EE000F023037040F20000C2F200000378002BD0
:102EF00000F088800078012840F0978041F29C75AE
:102F0000C2F2000582E0FEF76EFB012824D1FDF736
:102F100080FE00283FF43CAE41F6A850C2F200000B
:102F20000321017099F80010082088F80000481C5F
:102F30004EF28F314143490D01EBC101A0EB8100FD
:102F4000397889F80000481E387041F64070C2F2A6
:102F50000000002101701BE641F6AA52C2F20002F5
:102F60008220D07002F804BB4FEA1A2002F8030C4A
:102F70005046594602F802ACFDF752FE48B341F6FE
:102F80004074C2F2000420780130C1B203292070DD
:102F9000FFF4FEADFDF73DFE00285FD041F6A850DE
:102FA000C2F200000321017099F80010082088F88F
:102FB0000000481C4EF28F314143490D01EBC10125
:102FC000A0EB8100397889F80000481E3870002095
:102FD00047E099F800104EF28F3201314A43520D0A
:102FE00002EBC202A1EB82013A7889F80010511E6F
:102FF000397041F640710020C2F2000188F80000EB
:103000000870C5E541F29435C2F2000505F20240B0
:1030100005F2034305F2044605F580650AF1010453
:103020002C80002535701D700570501C4EF28F32BB
:103030004243520D02EBC202A0EB820089F800006D
:10304000481E38700720A1E540F20001C2F20001DD
:103050000978012922D0FEF727FF1FE0002088F819
:103060000000207094E541F29031C2F2000109782D
:10307000012911D112E041F29031C2F20001097828
:10308000022918BFFEF793FA08E041F29031C2F22C
:1030900000010978032901D0FEF789FA99F8001098
:1030A000002088F80000481C4EF28F314143490D42
:1030B00001EBC101A0EB8100397889F80000481EBE
:1030C000387065E599F800004EF28F3101304143C8
:1030D000490D01EBC101A0EB810138780022431EAC
:1030E000DEB23B7041F64073C2F20003232E88F833
:1030F000002089F800101A701BD82331CAB2392376
:103100005A43D20A42EAC202A1EB820189F80010B6
:10311000C9B2862201FB02F311FB02410D220A71A2
:1031200040224A800122E2540522127838704A7106
:103130002EE541F6A850C2F200000221FFF713BBB2
:1031400000F0A2F870B51C26C4F202060146007811
:103150003268FC2822F0010228BFFC20326072682D
:103160004FF6FF739A43024442F244250532041D90
:10317000C2F20005726028462246FDF715F9E8788C
:1031800029461030E8700020224600BF11F8013BAC
:10319000013A1844FAD140422855306840F0010005
:1031A000306070BD2DE9F04140F218470646C4F684
:1031B0000007202000243860402015468846C4F2CD
:1031C00002043861FEF74CFEE06E4FF6FF7120F00E
:1031D0000100E066206F2A4688432844206742F2B7
:1031E0004800C2F200003146FDF7DEF844F2084024
:1031F000C4F2000050E8001F41F0800140E80012D6
:10320000002AF7D1E06E40F00100E06644F620604D
:103210002168490202D40138FAD100204FF480011C
:10322000013861602168890203D40028A0F10100FF
:10323000F8D14FF4001060604BF6C150CFF6F0703B
:103240002168890303D4002800F10100F8D14FF46C
:10325000003041F64C7560604FF48020C2F20005EA
:10326000606040462946FC22FDF79EF82846FC2176
:10327000FDF7DFF8FEF7F4FD4020386020203861CC
:10328000BDE8F081FEE700004EF60C50BFF34F8F13
:10329000CEF200000168042201F4E061C0F2FA52AB
:1032A00011430160BFF34F8F00BFFDE794B041F2BF
:1032B0004807C4F20207B8694EF60C5840F0010006
:1032C000B861B869CEF2000800F0010000900098E3
:1032D00038694FF6FF0140F08050386138690422A8
:1032E00000F0805000900098D8F8000000260840B8
:1032F00040F20031C0F2FA510843C8F80000D8F893
:10330000000048F20004C0F3022080F00701042905
:1033100028BF11464FF0FF32033802FA01F138BFDF
:103320003046C94301FA00F0000188F8170047F25F
:103330000800C4F200000168C4F2000441F48041B6
:103340000160FEF749FE0596786840F2004540F0BE
:10335000200078607868C4F6000500F0200007902F
:10336000079878684FF0010940F0010078607868AC
:103370004FF4806A00F001000790079878684FF4D6
:10338000006140F0020078607868EB4600F00200CF
:10339000079007984FF62840CFF6FF70C5F82890A1
:1033A00045F800A029504FF4805129504020A862D0
:1033B0008020A86228465946CDE90099CDE90266E9
:1033C0000496FEF777F9CDF800A04EF20B4A4FF0C5
:1033D00090405946CEF2000ACDE90196CDE9036648
:1033E000FEF768F94FF40060CDE900094FF0904016
:1033F0005946CDE902660496FEF75CF94FF4805019
:10340000CDE900094FF090405946CDE90266049697
:10341000FEF750F9102000900220CDE901060620A9
:10342000059028465946CDE90366FEF743F920206A
:10343000CDE9000928465946CDE902660496FEF713
:1034400039F94020CDE9000928465946CDE9026600
:103450000496FEF72FF98020CDE900092846594649
:103460004EF2001BCDE902660496CEF2000BFEF789
:1034700021F9386807AD40F00400386038684FF033
:103480000C0900F00400009000983868294640F0CC
:1034900001003860386800F001000090009838683A
:1034A00040F002003860386800F002000090009898
:1034B000D8F800008AF800604FF40060CBF80000F4
:1034C000D8F800008AF801604FF48050CBF8000073
:1034D000D8F800008AF802604FF40050CBF80000E2
:1034E000D8F800008AF803604FF48040CBF8000061
:1034F000D8F800008AF804604FF40040CBF80000D0
:10350000D8F800008AF805604FF48030CBF800004E
:10351000D8F800008AF82D604FF08070CBF80400D6
:10352000D8F800008AF82E604FF00070CBF8040045
:1035300038684FF0020A40F008003860386800F040
:10354000080000900098386C20F440603864786976
:1035500040F001007861786900F001000090009867
:10356000786840F001007860786800F00100009011
:103570000098042007904FF09040CDE908A6CDE9CF
:103580000A66CDF83090FEF795F80820CDE9070AD5
:103590004FF090402946CDE90966CDE90B69FEF769
:1035A00089F80820C4F20200D0F8F817222262F34A
:1035B0000701C0F8F81701684BF6EF72CFF6FF72FB
:1035C000114001600168232521F440510160016828
:1035D00041F020010160016821F0400101600168B3
:1035E00041F080010160016821F4407101600168CF
:1035F00021F44061016040F60401C4F202010B684D
:1036000065F307030B604169114010314161416965
:1036100021F440514161416921F02001416141693A
:1036200021F040014161416941F0800141614169FE
:1036300021F440714161416921F44061416141F6E9
:103640000030C0F2B700CDE9010669462046009679
:10365000CDE90366CDE90596FEF7B0F848F208001B
:10366000C4F2000050E8001F21F0604140E8001261
:10367000002AF7D150E8001F21F0606140E80012F5
:10368000002AF7D1206820F000502060206840F028
:1036900001002060E0698002FCD5E0694002F9D5B4
:1036A0006C4620461421FCF7C4FE3869002640F021
:1036B00020003861386941F2004500F02000079091
:1036C0000798D8F800004EF20B40CEF2000080F8C8
:1036D0002C604FF40000CBF8040041F2BF20C4F28C
:1036E0000005029028462146ADF800600196FEF7DD
:1036F000E7F928684FF68F7120F08000286068682D
:10370000CFF6FF5108406860A868022120F08000D1
:10371000A860CDE90F66CDE90B66CDE90966386C86
:10372000012561F31D703864786807A940F40050E2
:103730007860786800F4005000900098786840F055
:1037400001007860786800F0010000900098032084
:1037500008904FF0904007950B96FDF7ABFF11A92D
:103760004FF0A040CDE911661396FDF766FF6C4659
:1037700020461821FCF75DFE4FF0A0402146FDF7E2
:1037800070FF0824C5F20004D4F8B80043F6FF71B6
:103790008843C4F8B800A06840F2034120F48030A8
:1037A000A060A0688843A0604FF44030CDE90D06CA
:1037B00004F53E700DA9FDF71CFF20684FF6C0719F
:1037C000C5F6FF7108402060206801F18051084073
:1037D00000F180502060A06A65F38A10A062E06862
:1037E00020F03800E060D4F8A80020F00200C4F80F
:1037F000A800FEF76DFEFDF75BFA00BFFEE7F1EEF5
:10380000100A4FF6FF71C0F2C03120EA010040F00B
:103810004070E1EE100A7047000000000000000058
:103820000102030406070809000000000102030466
:10383000000C1814303C2824606C7874505C4844A8
:10384000C0CCD8D4F0FCE8E4A0ACB8B4909C888498
:103850008C809498BCB0A4A8ECE0F4F8DCD0C4C888
:103860004C4054587C7064682C2034381C10040878
:1038700014180C0024283C3074786C6044485C5068
:10388000D4D8CCC0E4E8FCF0B4B8ACA084889C9058
:103890009894808CA8A4B0BCF8F4E0ECC8C4D0DC48
:1038A0005854404C6864707C3834202C0804101C38
:1038B0002824303C1814000C4844505C7874606C28
:1038C000E8E4F0FCD8D4C0CC8884909CB8B4A0AC18
:1038D000A4A8BCB094988C80C4C8DCD0F4F8ECE008
:1038E00064687C7054584C4004081C1034382C20F8
:1038F0003C3024280C0014185C5044486C607478E8
:10390000FCF0E4E8CCC0D4D89C908488ACA0B4B8D7
:10391000B0BCA8A4808C9894D0DCC8C4E0ECF8F4C7
:10392000707C6864404C5854101C0804202C3834B7
:10393000000306050C0F0A090B080D0E070401020F
:103940006039000800000020100000001402000888
:1039500070390008100000203029000030020008F3
:10396000010101010024F400010100000000000039
:04000005080001D915
:00000001FF
