:020000040800F2
:1000000030250020790200082D150008B50D0008E4
:1000100029150008B10D0008C51F000800000000E8
:100020000000000000000000000000009D15000816
:10003000B30D0008000000002F1500089102000811
:10004000930200089302000893020008930200083C
:10005000930200089302000893020008930200082C
:10006000930200089302000893020008930200081C
:10007000930200089302000893020008930200080C
:100080009302000800000000930200089302000899
:1000900093020008930200089302000893020008EC
:1000A00093020008930200089302000893020008DC
:1000B00093020008930200089302000893020008CC
:1000C00093020008930200089302000893020008BC
:1000D00093020008930200089302000893020008AC
:1000E000930200089302000893020008930200089C
:1000F0009302000893020008930200080000000029
:1001000000000000930200080000000093020008B5
:100110009302000800000000930200089D160008EA
:10012000930200089302000893020008930200085B
:100130009302000800000000000000009302000885
:100140009302000893020008000000000000000075
:10015000000000000000000000000000000000009F
:1001600000000000000000000000000093020008F2
:1001700093020008000000000000000000000000E2
:1001800000000000930200080000000000000000D2
:10019000000000000000000000000000000000005F
:1001A0000000000000000000930200089302000815
:1001B0009302000893020008930200080000000068
:1001C0000000000093020008000000000000000092
:1001D000930200089302000800F002F800F03CF8D7
:1001E0000AA090E8000C82448344AAF10107DA4592
:1001F00001D100F031F8AFF2090EBAE80F0013F0A8
:10020000010F18BFFB1A43F001031847082700002D
:1002100028270000103A24BF78C878C1FAD85207BE
:1002200024BF30C830C144BF04680C607047000070
:100230000023002400250026103A28BF78C1FBD8EF
:10024000520728BF30C148BF0B6070471FB502F08E
:10025000C0FA1FBD10B510BD00F047F91146FFF7F9
:10026000F5FF01F0B1FE00F065F903B4FFF7F2FF0E
:1002700003BC00F06DF900000948804709480047B9
:10028000FEE7FEE7FEE7FEE7FEE7FEE7FEE7FEE746
:10029000FEE7FEE704480549054A064B70470000A3
:1002A0008B160008D9010008301F002030250020DF
:1002B000302100203021002053EA020C00F0698038
:1002C0002DE9F04B4FF00006002B1FBFB3FA83F56A
:1002D00003FA05F424FA05F65E4012BF1643B2FA9B
:1002E00082F502FA05F4C5F120051EBF22FA05FCCD
:1002F00044EA0C04203556EA044C4FEA144418BF73
:10030000641C4FF000084FF00009904271EB030CA1
:1003100039D3002919BFB1FA81F701FA07F6B0FA0B
:1003200080F700FA07F6C7F120071EBF20FA07FC86
:1003300046EA0C062037B6FBF4FCA7EB0507103F96
:1003400007F01F0BCBF120062CFA06F60CFA0BFB7C
:1003500044BFB3460026202FA4BF5E464FF0000BDB
:100360005BEA060C08BF4FF0010B19EB0B0948EBD9
:100370000608ABFB027C06FB02CC0BFB03CCC01BCC
:1003800071EB0C01C1E70B46024641464846BDE809
:10039000F08B13B5084318BF4FF0FF300146AFF3A1
:1003A0000080BDE81C407047032A40F2308010F006
:1003B000030C00F0158011F8013BBCF1020F624400
:1003C00098BF11F801CB00F8013B38BF11F8013B91
:1003D000A2F1040298BF00F801CB38BF00F8013B3E
:1003E00011F0030300F04F80083AC0F0088051F884
:1003F000043B083A51F804CBA0E80810F5E7121DB9
:100400005CBF51F8043B40F8043BAFF30080D207D7
:1004100024BF11F8013B11F801CB48BF11F8012BA3
:1004200024BF00F8013B00F801CB48BF00F8012BC6
:1004300070474FF0000200B51346944696462039A7
:1004400022BFA0E80C50A0E80C50B1F12001BFF48D
:10045000F7AF090728BFA0E80C5048BF0CC05DF8F3
:1004600004EB890028BF40F8042B08BF704748BF41
:1004700020F8022B11F0804F18BF00F8012B7047B5
:1004800070477047704710B5203AC0F00B80B1E854
:100490001850A0E81850B1E81850A0E81850203AB9
:1004A000BFF4F5AF5FEA027C24BFB1E81850A0E8C2
:1004B000185044BF18C918C0BDE810405FEA827CDC
:1004C00024BF51F8043B40F8043B08BF7047D207F3
:1004D00028BF31F8023B48BF11F8012B28BF20F894
:1004E000023B48BF00F8012B7047754600F02CF81E
:1004F000AE4605006946534620F00700854618B011
:1005000020B5FFF7C7FEBDE820404FF000064FF0D2
:1005100000074FF000084FF0000BAC46ACE8C009F4
:10052000ACE8C009ACE8C009ACE8C00921F007019B
:100530008D46704710B50446AFF300802046BDE8F5
:100540001040FFF792BE00000048704708000020EE
:1005500001491820ABBEFEE726000200704770B5C7
:100560004FF090452868012161F38B2030262860E8
:10057000C4F20206306843F2000420F0010030604B
:100580007069C4F2010420F001007061204600F09F
:100590007EFE4FF45B70206041F203706060B069D2
:1005A000052161F30F00B061706861F30F007060A6
:1005B0007069022140F001007061286861F38B20AE
:1005C0002860306840F00100306070BDB0B5302563
:1005D000C4F20205286843F2000420F001002860FC
:1005E0006869C4F2010420F001006861204600F04F
:1005F0004EFE40F26F30206041F203706060A869E7
:10060000052161F30F00A861686861F30F0068605D
:10061000686940F001006861286840F001002860C6
:10062000B0BDB0B540F20845C4F20205286843F6F3
:10063000004420F0010028606869C4F2000420F042
:1006400001006861204600F022FE40F26F30206019
:1006500041F203706060A869052161F30F00A86191
:10066000686861F30F006860686940F001006861C4
:10067000286840F001002860B0BD80B540F2780ED7
:10068000C2F2000E9EF8173084464FF0010003B10D
:1006900080BD8EF818008EF8170000208EF808C074
:1006A0008EF80910CEF8102080BD40F2780CC2F20E
:1006B000000C9CF81730002B4FF001030BD18CF885
:1006C000183002238CF8173000238CF808008CF8BF
:1006D0000910CCF810201846704740F27800C2F29A
:1006E00000000021017670472DE9F04781B041F20A
:1006F0004802C4F2020210684FF0904440F0040037
:100700001060106840F2184A00F004000090009851
:100710001068C4F6000A40F00100106010684FF045
:10072000010800F00100009000981068042140F0DA
:10073000020010601068C4F6000100F00200009092
:10074000009890694FF0020940F4805090619069E0
:100750004FF0050C00F480500090009850680A2576
:1007600040F00100506050684BF6EF7E00F0010051
:10077000009000985068CFF6FF7E40F00200506075
:1007800050680B2600F0020000900098906940F23B
:10079000980340F4805090619069C2F2000300F425
:1007A0008050009000982068033340F4402020607F
:1007B000CAF80080D1F8FC0368F30100C1F8FC031B
:1007C000086820F4806008604FF480604861206809
:1007D00068F315502060086820F480600860206885
:1007E00069F38B20206020204861086820F02000F9
:1007F0000860206869F30D302060C8696CF31750F9
:10080000C861C8696CF31B60C8613020C4F2020083
:10081000076827F001070760D0F8D87765F3070766
:10082000C0F8D877056840F60C0705EA0E050560A4
:100830000568C4F2020725F440550560056825F0F7
:1008400020050560056825F040050560056845F050
:1008500080050560056825F440750560056825F488
:1008600040650560456925F0010545613D6866F311
:1008700007053D60456905EA0E0510354561456986
:1008800025F440554561456925F0200545614569D8
:1008900025F040054561456945F08005456145699C
:1008A00025F440754561456925F44065456143F28D
:1008B0000005C4F2010505F10C068660C3604368BB
:1008C0006CF30F034360C66183696CF30F038361AC
:1008D0006B6843F002036B606B6843F001036B606D
:1008E0002B6843F040032B60036843F0010303606F
:1008F000136843F004031360136803F004030093C8
:10090000009B136843F001031360136803F00103B5
:100910000093009B136843F002031360136803F015
:1009200002030093009B936943F48053936193699E
:1009300003F480530093009B536843F0010353601A
:10094000536803F001030093009B536843F00203D4
:100950005360536803F002030093009B136943F450
:1009600000431361126940F2A00302F400420092B6
:10097000009A2268C2F2000342F4402222608022E0
:10098000CAF80020D1F8FC23033368F38F32C1F892
:10099000FC23D1F8002422F08002C1F80024C1F821
:1009A0001490226868F3830222600A6822F002022F
:1009B0000A60D1F8FC2369F38712C1F8FC230822EE
:1009C000CAF80020D1F8002422F00802C1F800245F
:1009D000D1F8FC2369F30922C1F8FC23DAF80810E6
:1009E000062262F30F31CAF80810DAF8081062F331
:1009F0001341CAF80810D0F8D8130E2221F00101D3
:100A0000C0F8D813796962F307017961D0F8D81377
:100A10000F2201EA0E01C0F8D813D0F8D81321F440
:100A20004051C0F8D813D0F8D81321F02001C0F8F5
:100A3000D813D0F8D81321F04001C0F8D813D0F85B
:100A4000D81341F08001C0F8D813D0F8D81321F49E
:100A50004071C0F8D813D0F8D81321F44061C0F821
:100A6000D813D0F8EC1321F00101C0F8EC13B969E8
:100A700062F30701B961D0F8EC1301EA0E011031FD
:100A8000C0F8EC13D0F8EC1321F44051C0F8EC138B
:100A9000D0F8EC1321F02001C0F8EC13D0F8EC13DF
:100AA00021F04001C0F8EC13D0F8EC1341F08001C4
:100AB000C0F8EC13D0F8EC1321F44071C0F8EC133B
:100AC000D0F8EC1321F44061C0F8EC1343F6004178
:100AD000C4F2000101F10C02C0F8E023C0F8E433D5
:100AE000D0F8DC336CF30F03C0F8DC33C0F8F42328
:100AF000D0F8F0236CF30F02C0F8F0234A6842F0FC
:100B000002024A604A6842F001024A600A6842F002
:100B100040020A60D0F8D81341F00101C0F8D813A0
:100B200001B0BDE8F087000040F27802C2F2000296
:100B3000D17D072900F2A480DFE811F01D01080033
:100B4000310058006E00A400B9009D00107A0C23FB
:100B500000F07F0142F6041C83EA1113C0F6000C7A
:100B60001CF8033000F00F0058401CF800003C2334
:100B7000A3EB800000F47F7040EA811040F48030E5
:100B800040F002001060022010750020506050817B
:100B90000320D0754FF48030D0610121EBE0107A52
:100BA0000C2300F07F0142F6041C83EA1113C0F607
:100BB000000C1CF8033000F00F0058401CF8000037
:100BC0003C23A3EB800000F47F7040EA811000F129
:100BD0000110106001210020032311755081506025
:100BE000D375A2F815004FF4803013E0D17A0131AB
:100BF000D172C9B2C1F1120C536800FA0CF018435B
:100C0000112950605DD81068D1690140D06918BFC2
:100C100001214008D061AEE0D17A5368C1F10D0CDA
:100C200000FA0CF018430D2950605AD3506842F670
:100C30000413C0F30321C0F60003595CC0F3031092
:100C40004840185C5168C0F10F0001F00F01884264
:100C500040F08E8050681169937A0009C854507A28
:100C6000917A0131CBB28342917280F0778000207B
:100C70005060D07291E7107B10B10138107379E0A9
:100C800000211CE0917D032972D8DFE801F0022DDC
:100C9000374D517D01230229937565D0012965D017
:100CA000002965D101210028517566D160E0507B93
:100CB000002101305073507B0E285CD15173D175E7
:100CC00059E05168107D430803F5803399424FD1B4
:100CD00000210523D172022808BF0423D375516077
:100CE0005BE7481CD07245E002219175D17200216A
:100CF0005160E8B31068C0F3C0213CE0D17A53687A
:100D0000C1F10D0C00FA0CF018435060481CD07271
:100D10001168C0B2C0F10D03D9400D2801F00101E6
:100D200004BF0320907526E00021D37A9175C3F1AA
:100D30000D01536888401843506050681168B0EB4B
:100D4000510F15D1507A917A0131CBB28342917211
:100D5000FFF423AF0220507510760BE003201076CD
:100D60000720D0750E2089E710B9F9E7012804D1D2
:100D70000620D0750021084670471069917A42F626
:100D8000041C405CC0F6000C01091CF8011000F0C6
:100D90000F0359401CF801101E23A3EB410101F47D
:100DA000FF7141EA401010601068C0F30031E2E7C3
:100DB000FEE77047FEE7000041F20041C4F2000187
:100DC000C86840F00100C8600A68082042F00102CB
:100DD0000A6041F63051C4F20200C2F20001C16063
:100DE00048F22401C4F2000141F630628160C2F28F
:100DF000000204310262C16141684FF4807262F303
:100E00000F01416048F20801C4F2000151E8002FCF
:100E100042F0400241E80023002BF7D151E8002FB7
:100E200042F0800241E80023002BF7D1016841F035
:100E300001010160704740F27800C2F20000007EBC
:100E4000704780B50822C5F200021368D2F800216D
:100E50001A43D2071CBF012080BDD1E900C38268BC
:100E600043F2E00ECFF6C07E02EA0E0243B1D1E9B2
:100E700002E141EA0E01114341EA0C01194301E08C
:100E800042EA0C018160002080BD8268D2071CBF4D
:100E900001207047C2684CF2180322EA030CD1E922
:100EA0000032896843EA0C031A431143C1600020F1
:100EB0007047B0B58268D2071CBF0120B0BDD1E930
:100EC00000C2C3684CF21C0ECFF6F07E0EEA030E91
:100ED00032B101F1080538CD496923432B4303E0C2
:100EE000D1E9033449692343194341EA0C0141EA3A
:100EF0000E01C160016B21F00F011143016300205D
:100F0000B0BD00002DE9F04F0C6894FAA4F2B2FADB
:100F100082F234FA02F361D04FF001084FF0030B74
:100F200008FA02F314EA030C54D0D1F80490A9F1A2
:100F30000103022B1CD29CFAACF6B6FA86F77E00AF
:100F4000D0F808A00BFA06F3D1E902BE2AEA030A98
:100F50000BFA06F545EA0A05856045684FF0030B74
:100F6000A5430EFB04F4DB432543456008E000BFC6
:100F70009CFAACF3B3FA83F77E000BFA06F3DB437B
:100F80000D69C468B5401C402543B9F1020FC56026
:100F900019D14FEA1C2494FAA4F4D1F814E0BCF55A
:100FA000807F28BFB4FA84F74FF0240438BF202490
:100FB00050F804C0BF000F25BD402CEA05050EFA0D
:100FC00007F72F430751D1E900470568B7402B4089
:100FD0003B430360013234FA02F3A1D10020BDE8A3
:100FE000F08F44F6D351C1F26201A0FB01014FF032
:100FF000FF3000EB91104EF21001CEF2000148607C
:1010000000208860052008607047000070B5044625
:101010000068C00733D10D4620684EF6F311CEF6B6
:10102000FF7105F1080608404ECE084318433043CF
:101030002060606820F4405010436060A869A16897
:1010400021F440710843A0604FF4406000F02EF896
:10105000B8B16A68AAB129880EA333F81110002329
:10106000B0FBF1F00026010E000210EB520041F13E
:101070000001FFF721F96FF31F50E06002E0012645
:1010800006E001262888E16A21F00F010843E062AA
:10109000304670BD010002000400060008000A008E
:1010A0000C001000200040008000000110B541F24B
:1010B0000004C4F20204D4F8881008404FEAB020BB
:1010C000032807D002280CD0012813D1BDE8104016
:1010D00000F02EBAD4F890004FF4004101EA8030BD
:1010E00010BD206842F200414005C0F2F40101EA5F
:1010F000E07010BD00F01CFAA16842F2EC72C1F37E
:101100000311C0F60002515CA26842F2FC73C2F304
:101110000222C0F600039A5C01F01F01C84002F0F1
:101120001F01C84010BD10B5C0281CBF002010BD55
:1011300041F20004C4F20204D4F88800C0F3811024
:10114000032807D002280CD0012813D1BDE8104095
:1011500000F0EEB9D4F890004FF4004101EA80307D
:1011600010BD206842F200414005C0F2F40101EADE
:10117000E07010BD00F0DCF9A16842F2EC72C1F33E
:101180000311C0F60002515CA26842F2FC73C2F384
:101190000222C0F600039A5C01F01F01C84002F071
:1011A0001F01C84010BD10B530282CD00C2833D0FA
:1011B00003281CBF002010BD41F20004C4F2020449
:1011C000D4F888004FF4404161F39F00B0F1031F51
:1011D00034D00221C0F20301884236D00121C0F28E
:1011E0000301884226D000F0A3F9A16842F2EC7214
:1011F000C1F30311C0F60002515CA26801F01F01A7
:10120000C2F3C22239E041F20004C4F20204D4F86D
:101210008800C0F3011007E041F20004C4F20204A8
:10122000D4F88800C0F38100032807D002280CD02E
:10123000012813D1BDE8104000F07AB9D4F890002D
:101240004FF4004101EA803010BD206842F20041B5
:101250004005C0F2F40101EAE07010BD00F068F949
:10126000A16842F2EC72C1F30311C0F60002515CB6
:10127000A26801F01F01C2F3022242F2FC73C0F621
:1012800000039A5CC84002F01F01C84010BD43F63D
:101290000001C4F2000188421AD043F60041C4F2B2
:1012A0000001884220D043F20001C4F201018842CB
:1012B0001CBF0120704741F23800C4F2020081686F
:1012C00041F480518160816821F48051816017E090
:1012D00041F23800C4F20200016841F4804101602B
:1012E000016821F480410AE041F23800C4F20200B2
:1012F000016841F400410160016821F4004101608E
:101300000020704740F20401C2F2000108607047FB
:1013100040F2FF7C02460068C4F2000C624510DD1A
:1013200040F60003C4F200039A4213D043F2004394
:10133000C4F201039A420DD042F60043C4F2010305
:1013400006E0B2F1804F05D040F20043C4F2000342
:101350009A4203D14B6820F07000184343F2FF33E8
:10136000C4F201039A4209DC624516DCB2F1804FF7
:1013700028D040F20043C4F2000321E044F2FF33DE
:10138000C4F201039A4211DC43F20043C4F20103A8
:101390009A4217D044F2000310E040F60003C4F272
:1013A00000039A420ED042F6004307E044F60003E1
:1013B000C4F201039A4205D044F20043C4F201038F
:1013C0009A4203D1CB6820F44070184310608868BB
:1013D000D062A2F18040A0F596300B884FEAB02091
:1013E0000728936207D8012303FA00F010F0E50FF5
:1013F0001CBF08691063506940F001010020516171
:101400007047000070B504460068C0071CBF01208B
:1014100070BD0E46206846F6F311CEF6FF71084007
:10142000D6E9021CD6E904320843F5691843104393
:1014300028432060606820F4405040EA0C0060605F
:10144000B069A16821F440710843A06044F6FF3000
:10145000C4F2000084424FF001000DDC44F2004170
:10146000C4F200018C4215D044F60001C4F2000120
:101470008C423AD130200EE044F60041C4F2000123
:101480008C420BD043F60001C4F201018C422CD1F6
:10149000032000E00C20FFF786FE02E0C020FFF7EB
:1014A00042FEC8B17168B9B132680B2A1CD812A3C8
:1014B00053F82220F369B0FBF2F0B3F5004F0DD1E1
:1014C000400000EB5100B0FBF1F04FF6F07101402D
:1014D000C0F34200084406E0012006E000EB5100A2
:1014E000B0FBF1F080B2E06000203188E26A22F0C7
:1014F0000F021143E16270BD010000000200000014
:101500000400000006000000080000000A000000BF
:101510000C0000001000000020000000400000004F
:101520008000000000010000FEE70000FEE77047B9
:1015300041F20C01C4F2020151F8040C00F00C025B
:1015400042F200400C2AC0F2F40007D0082A18BF6B
:10155000704741F20020C0F27A0070470A680346E3
:1015600002F00302032A04BF41F20023C0F27A030F
:10157000022A0A6808BF0346C2F306200A680968FF
:10158000C2F3031258430132B0FBF2F0C1F34161E0
:10159000022202EB4101B0FBF1F07047704710B539
:1015A0000446FFF748FC00B110BD40F2A800C2F2AB
:1015B0000000047010BD000010B582B042F20000BF
:1015C000C4F202000168042262F30301016000BF5B
:1015D000016801F00F010429FAD147F20001C4F2B9
:1015E00000010A68012341F2000063F34A22C4F2B9
:1015F00002000A60016841F48031016001688903DA
:10160000FCD5C16848F20C02CFF6FF12114042F23D
:1016100003421143C160C16841F08071C16001683B
:1016200041F08071016000BF01688901FCD58168CB
:10163000082241F003018160816862F30711816033
:10164000816801F00C010C29FAD155210191019911
:1016500011B101990139F9E7816844F2004421F0A0
:10166000F00181608168C0F6950421F4E061816039
:10167000816821F4605181602046FFF7B2FC20466A
:1016800002B0BDE81040FFF73DBE4EF68850CEF2E6
:101690000000016841F470010160704770B541F2CB
:1016A0001040C4F200006FF00101016040F29800A8
:1016B000C2F20000416840F2700209BAC2F20002B0
:1016C0001160136842F604019E0FC0F600018E5DA2
:1016D000C3F387556E408E5DC3F387356E408E5DD4
:1016E000C3F387137340CB5C166883F0FF0306F0E7
:1016F0003F06B6EB930F18D140F20003C2F200038D
:1017000000261E7040F26803C2F2000312681E68D1
:1017100006F07F4646EA12221A601A681E6866F3CF
:10172000170202F180721A6005E040F20002C2F274
:1017300000020123137040F2A002C2F200025368BB
:101740001EBA40F27403C2F200031E601E68B50F99
:101750004D5DC6F3875465404D5DC6F387346540E3
:101760004D5DC6F387166E40895D1E6881F0FF01EE
:1017700006F03F06B6EB910F18D140F20101C2F21C
:10178000000100260E70196840F26C03C2F20003DB
:101790001E6806F07F4646EA1121196019681E6826
:1017A00066F3170101F18071196005E040F2010153
:1017B000C2F2000101230B7040F2A801C2F2000145
:1017C000097801290FD049B90068C0F30060FFF71C
:1017D000ABF9012802D1FEF7C2FE01E0FEF7F6FEEA
:1017E000FEF71FFF43E01068C0F30060FFF79CF9AD
:1017F000012838D140F20045C4F6000528680121CF
:1018000061F3871040F208462860C4F2020630688F
:1018100043F6004420F0010030607069C4F2000417
:1018200020F0010070612046FFF731FD4FF45B703E
:10183000206041F203706060B069052161F30F0020
:10184000B061706861F30F0070607069022140F050
:1018500001007061286861F387102860306840F0EB
:101860000100306001E0FEF7DCFEFEF7AFFEBDE8F0
:10187000704000F001B800002DE9F04F83B0FFF791
:10188000DAFA032807D141F69630C2F2000000F0E0
:1018900069FBFEF722FF41F69537C2F20007387860
:1018A000072800F27F81DFE810F0080021007D01A9
:1018B00055005C00A200FA007A010C20C4F202007C
:1018C000006881B241F69840C2F200000068C1F59C
:1018D0008071814240F06B8141F62150C2F20000DC
:1018E0000078002800F0608104205CE141F69C490A
:1018F000C2F2000948468521FEF79BFD41F62C50B7
:10190000C2F20000007800285ED041F6984B41F604
:10191000285AC2F2000BC2F2000ADBF80040DAF8E3
:10192000000041F6305520440138C0B2C2F2000533
:10193000285CDAF8001001390A0600F05081CAB2BA
:1019400000212346DEB2AE5D013A314403F10103CA
:10195000F8D145E141F69430C2F200000121017056
:1019600032E041F62158C2F2000898F80000002841
:1019700000F01A8141F62259C2F2000999F80010CC
:1019800040F2AA05C2F20005862211FB025301FBB8
:1019900002F61A7915F806A05C887F2A00F33A81CE
:1019A0000D2A11D803F1050BDFE812F010000E002C
:1019B0000E000E00B4010E000E000E000E000E0010
:1019C000FE0117021E0235020720ECE0FFF733FA92
:1019D000012800F0E980BAF1400F40F0218204F0C4
:1019E0001F0006304FF0410A8BF8410018E241F227
:1019F0008431C2F20001B1F80004002800F0D28066
:101A000040F26800C2F2000000680290029091F873
:101A10000224000E824200F0C78081F8020491F88F
:101A20000404029A41F8202091F80404013081F85E
:101A3000040491F8040491F80324801AC0B23C28ED
:101A4000C0F0B28091F8030491F80424904219D0B8
:101A500041F696320020C2F20002042391F803748A
:101A600052FA80F651F8277053FA80F0776091F8B7
:101A70000374013781F8037491F8037491F80464D6
:101A8000B742EBD1B1F800040138A1F80004B1F875
:101A90000004020A41F69630C2F2000078E041F2FA
:101AA0008431C2F20001B1F8000400287AD040F27B
:101AB0006800C2F20000026840F26C0002920192DB
:101AC000C2F200000068120E0290029091F80234F7
:101AD000934269D081F8022491F80424019B000EFE
:101AE00041F8223091F80424013281F8042441F2B3
:101AF0008C72C2F2000282F8020492F80404029B83
:101B000042F8203092F80404013082F8040491F87D
:101B1000040491F80334C01AC0B21E2844D391F8CB
:101B2000030491F80434984241F69630C2F2000062
:101B300021D00026031D042791F80354F4B251F874
:101B4000255004361D5192F80354F4B252F8255032
:101B500057FA86F61D5191F80354013581F8035464
:101B600092F80354013582F8035491F8035491F824
:101B70000444A542E0D1B1F80034013BA1F800349F
:101B8000B2F80034013BA2F80034B1F80024120A84
:101B90004270B1F80014817000F0E4F904E000BF75
:101BA00000BF00BF0020387003B0BDE8F08F41F6E1
:101BB0003052C2F20002125C41F62C53C2F2000312
:101BC0001A701A78081A511D41F62852C2F2000202
:101BD00011601168C0B28842E6D30120E3E700211A
:101BE0004942C9B288420DD1DAF800002044B0F56C
:101BF000807F31D8DAF8002041F69C402919C2F2E2
:101C0000000036E041F69430C2F20000012101707C
:101C1000032077E0802A00F02081812A00F04F81A4
:101C2000822A7FF4D1AEFFF706F90128BCD041F635
:101C30009632C2F200028220D07002F804AB200A71
:101C400002F8030C2046514602F8024CFEF715FD3F
:101C500000287FF4B9AEADE0C4F580762919484676
:101C60003246FEF7A1FBDAF8001009EB06008A1BEA
:101C70002946FEF799FB41F62158C2F2000898F870
:101C80000060232E37D841F62353B9F80100C2F281
:101C9000000393F800B040F2AA0C99F8031000BAC0
:101CA000C2F2000C862599F80020000C1BFB05C32E
:101CB0000BFB05F519715880581D09F104010CF84A
:101CC0000520FEF771FB0BF101004EF28F3141430D
:101CD000490D01EBC101A0EB810041F62351C2F295
:101CE000000141F6984B0870701CC2F2000B88F896
:101CF0000000042006E041F69430C2F20000022108
:101D0000017007203870DAF800002044C0B2CBF828
:101D1000000049E7FFF78FF801283FF445AF9BF833
:101D2000000002AA8DF8080018200121FEF7BDFC72
:101D300000287CD199F800004EF28F3101304143E8
:101D4000490D01EBC101A0EB810198F800000022D0
:101D5000431EDEB288F8003041F62453C2F200037D
:101D6000232E3A7089F800101A7000F2F4802331A3
:101D7000CAB239235A43D20A42EAC202A1EB820113
:101D800089F80010C9B2862201FB02F311FB02514F
:101D90000D220A7140224A800122EA54052212785B
:101DA00088F800004A71FFE69BF80000012801D87E
:101DB000FFF7F5FB99F8001000203870481C4EF230
:101DC0008F314143490D01EBC101A0EB810098F82F
:101DD000001089F80000481E1AE040F21842C4F6CC
:101DE00000020123136105E040F21842C4F600022C
:101DF0000123136000223A7001314EF28F324A43C0
:101E0000520D02EBC202A1EB8201013889F80010E9
:101E100088F80000C8E6FFF70EF801283FF4C4AECA
:101E2000204651465A46FEF740FC002879D041F63C
:101E30002450C2F2000001780131CAB2032A0170B5
:101E4000FFF4B2AE41F69431C2F2000103220A70EF
:101E50000721397000210170A6E641F69632C2F2E0
:101E600000028023D370F023137041F28433621C8C
:101E7000C2F200030026A3F8002483F8046483F868
:101E8000036483F8026441F28C73C2F20003A3F886
:101E9000002401314EF28F324A43520D02EBC2024E
:101EA000A1EB8201013883F8046483F8036483F8AA
:101EB000026489F8001088F80000062073E641F6F5
:101EC0009632C2F200028123D370F023137041F2E4
:101ED0008433621CC2F200030026A3F8002483F8B6
:101EE000046483F8036483F8026441F28C73C2F2E1
:101EF0000003A3F8002401314EF28F324A43520D01
:101F000002EBC202A1EB8201013883F8046483F87A
:101F1000036483F8026489F8001088F80000052043
:101F200041E699F800104EF28F3201314A43520DCA
:101F300002EBC202A1EB820198F8002089F80010A0
:101F4000511E88F8001041F624510020C2F2000111
:101F50003870087028E641F69430C2F20000022181
:101F6000FDE4000070B51C26C4F2020601460078AC
:101F70003268FC2822F0010228BFFC20326072681F
:101F80004FF6FF739A43024441F630650532041D53
:101F9000C2F20005726028462246FEF705FAE8788C
:101FA00029461030E8700020224600BF11F8013B9E
:101FB000013A1844FAD140422855306840F00100F7
:101FC000306070BDFEE7000096B041F24C04C4F2F0
:101FD000020460694EF60C5240F0010060616069D5
:101FE000CEF2000200F001000E900E98E0684FF66D
:101FF000FF0140F08050E060E068134600F0805040
:102000000E900E9810680027084040F20031C0F290
:10201000FA510843106010680422C0F3022080F0D7
:102020000701042928BF11464FF0FF32033802FA96
:1020300001F138BF3846C94301FA00F00001D875F4
:1020400047F20800C4F20000016840F2004840F284
:10205000080A48F2000541F48041C4F60008C4F2C1
:10206000020AC4F200050160FFF7A6FA1397206880
:102070004FF0010B40F02000206020684FF4806991
:1020800000F020000890089820684FF4006140F0AC
:102090000100206020680EAE00F001000890089852
:1020A000206840F002002060206800F002000890E4
:1020B00008984FF62840CFF6FF70C8F828B048F8C7
:1020C000009048F800104FF4805148F8001040206C
:1020D000C8F828008020C8F8280040463146CDE9DD
:1020E0000EBBCDE910771297FEF70CFF4FF0904032
:1020F0003146CDE90E9BCDE910771297FEF702FF2E
:102100004FF40060CDE90E0B4FF090403146CDE921
:1021100010771297FEF7F6FE4FF480500E904FF0B6
:10212000904031464FF48059CDE90FB7CDE9117792
:10213000FEF7E8FE10200E900220CDE90F070620E2
:10214000139040463146CDE91177FEF7DBFE402083
:10215000CDE90E0B40463146CDE910771297FEF7D8
:10216000D1FE8020CDE90E0B4EF20B4B40464EF6D1
:102170000C583146CEF2000BCDE910771297CEF213
:102180000008FEF7BFFE54F8040C4EF2001140F0B8
:10219000040044F8040C54F8040CCEF2000100F0E2
:1021A00004000E900E9854F8040C08AE40F00100A4
:1021B00044F8040C54F8040C00F001000E900E9842
:1021C00054F8040C40F0020044F8040C54F8040CD9
:1021D00000F002000E900E98D8F800008BF8007006
:1021E0004FF400600860D8F800008BF80170C1F867
:1021F0000090D8F800008BF802704FF4005008608F
:10220000D8F800008BF803704FF480400860D8F8CD
:1022100000008BF804704FF400400860D8F800000C
:102220008BF82D704FF080704860D8F800008BF864
:102230002E704FF00070486054F8040C4FF0020B01
:1022400040F0080044F8040C54F8040C4FF00C095A
:1022500000F008000E900E98E06B314620F44060CC
:10226000E063206940F001002061206900F0010076
:102270000E900E98206840F001002060206800F069
:1022800001000E900E98042008904FF09040CDE988
:1022900009B7CDE90B77CDF83490FEF733FE08206F
:1022A000CDE9080B4FF090403146CDE90A77CDE9F2
:1022B0000C79FEF727FEDAF8F807222161F3070010
:1022C000CAF8F807DAF800004BF6EF71CFF6FF71A5
:1022D0000840CAF80000DAF8000040F6040320F4D1
:1022E0004050CAF80000DAF80000C4F2020340F0DF
:1022F0002000CAF80000DAF80000232220F0400095
:10230000CAF80000DAF8000040F08000CAF80000C7
:10231000DAF8000020F44070CAF80000DAF8000093
:1023200020F44060CAF80000186862F307001860E3
:10233000DAF8140008401030CAF81400DAF8140073
:102340000EA920F44050CAF81400DAF8140020F066
:102350002000CAF81400DAF8140020F04000CAF88F
:102360001400DAF8140040F08000CAF81400DAF81B
:10237000140020F44070CAF81400DAF8140020F4B5
:102380004060CAF8140041F60030C0F2B700CDE951
:102390000F0728460E97CDE91177CDE91397FEF781
:1023A00035FE48F20800C4F2000000BF50E8001FEC
:1023B00021F0604140E80012002AF7D150E8001FE8
:1023C00021F0606140E80012002AF7D1286820F06F
:1023D00000502860286840F001002860E869800209
:1023E000FCD5E8694002F9D50EAE44F2004530460E
:1023F0001421C4F20005FEF71CF8E0684EF200114B
:1024000040F02000E060E068CEF2000100F0200023
:1024100008900898D8F800004EF20B404FF00008E2
:10242000CEF2000080F82C804FF4000041F200470B
:10243000486041F2BF20C4F2000710903846314690
:10244000ADF83880CDF83C80FEF762FF38684FF673
:102450008F7120F0800038607868CFF6FF51084017
:102460007860B8684FF0020920F08000B860CDE9CC
:102470000388CDE90C88CDE90A88E06B4FF0010BA9
:1024800069F31D70E063206808A940F400502060E3
:10249000206800F400500E900E98206840F0010073
:1024A0002060206800F001000E900E980320099033
:1024B0004FF09040CDF820B0CDF83080FEF722FDEF
:1024C00005A94FF0A040CDE90588CDF81C80FEF7A6
:1024D000DCFC0EAE30461821FDF7ABFF4FF0A040FC
:1024E0003146FEF7E6FC0826C5F20006D6F8B8002D
:1024F00043F6FF718843C6F8B800B06840F2034164
:1025000020F48030B060B0688843B0604FF4403051
:10251000CDE9010806F53E7001A9FEF792FC30688E
:102520004FF6C071C5F6FF7108403060306801F1A8
:102530008051084000F180503060B06A08AF6BF302
:102540008A10B062F068142120F03800F060D6F8EC
:10255000A80020F00200C6F8A8003846FDF769FF81
:10256000E0680EA940F00200E060E06800F00200C0
:102570000E900E98206840F001002060206800F066
:1025800001000E900E981020CDE90E094FF09040FA
:10259000CDE91088CDE91289FEF7B4FC40F200467F
:1025A0004FF6FF70C4F20006CDE90A0830463946FE
:1025B000ADF82080CDF82480FEF7AAFE30684FF6F3
:1025C000F87120F080003060B068CFF6FE710840EE
:1025D0000130B060B0694FF68F716BF30100B061EC
:1025E000B069CFF6FF5120F00C00B061B06920F067
:1025F000F000B061306A20F00A003062B0696BF31D
:102600000920B061B06920F44060B061B06920F485
:102610007040B061306A20F0A000306270680840FD
:102620007060B06820F08000B060F06D20F00F3076
:102630000130F065E06B08AE20F00C00E063E0686C
:10264000314640F40030E060E06800F400300E9065
:102650000E98206840F001002060206800F0010022
:102660000E900E98206840F0020020602068072439
:1026700000F002000E900E984FF09040CDE90899BE
:10268000CDE90A88CDF830800D94FEF73BFC4FF47D
:102690000040CDE908094FF090403146CDE90A8865
:1026A000CDE90C84FEF72EFC0820CDE9080940F2A4
:1026B0000040C4F600003146CDE90A88CDE90C841B
:1026C000FEF720FC40F60402C4F20202D0681A2190
:1026D00061F30700D060DAF8500044F2100188433B
:1026E000CAF85000DAF850000EA920F44050CAF899
:1026F0005000DAF8500020F02000CAF85000DAF854
:10270000500020F04000CAF85000DAF8500040F0C5
:102710008000CAF85000DAF8500020F44070CAF87F
:102720005000DAF8500020F44060CAF850004CF233
:10273000C060C0F22D00CDE90F080C20CDE91308D0
:102740002846CDF83880CDE91188CDF85480FEF7C1
:1027500059FE44F20840C4F2000000BF50E8001FD8
:1027600021F0604140E80012002AF7D150E8001F34
:1027700021F0606140E80012002AF7D1A86840F417
:102780008040A860A86820F40040A860286820F075
:1027900078702860286820F4F8102860286820F0F5
:1027A00000502860686820F490406860A86820F0B5
:1027B0002A00A860286840F001002860E8698002CB
:1027C000FCD5E8694002F9D5FEF7F6FAFDF78CFF73
:1027D000FEE7F1EE100A4FF6FF71C0F2C03120EAB9
:1027E000010040F04070E1EE100A70470000000068
:1027F00000000000010203040607080900000000B1
:1028000001020304000C1814303C2824606C787416
:10281000505C4844C0CCD8D4F0FCE8E4A0ACB8B4D8
:10282000909C88848C809498BCB0A4A8ECE0F4F8C8
:10283000DCD0C4C84C4054587C7064682C203438B8
:102840001C10040814180C0024283C3074786C60A8
:1028500044485C50D4D8CCC0E4E8FCF0B4B8ACA098
:1028600084889C909894808CA8A4B0BCF8F4E0EC88
:10287000C8C4D0DC5854404C6864707C3834202C78
:102880000804101C2824303C1814000C4844505CE8
:102890007874606CE8E4F0FCD8D4C0CC8884909C58
:1028A000B8B4A0ACA4A8BCB094988C80C4C8DCD048
:1028B000F4F8ECE064687C7054584C4004081C1038
:1028C00034382C203C3024280C0014185C50444828
:1028D0006C607478FCF0E4E8CCC0D4D89C90848818
:1028E000ACA0B4B8B0BCA8A4808C9894D0DCC8C408
:1028F000E0ECF8F4707C6864404C5854101C0804F8
:10290000202C3834000306050C0F0A090B080D0EA5
:102910000704010238290008000000200800000018
:1029200014020008402900080800002028250000A3
:102930003002000800000000010100000024F40043
:04000005080001D915
:00000001FF
